{
  "_format": "hh-sol-artifact-1",
  "contractName": "FinanceProcessor",
  "sourceName": "contracts/FinanceProcessor.sol",
  "abi": [
    {
      "inputs": [
        {
          "internalType": "address",
          "name": "_fundingPoolAddress",
          "type": "address"
        },
        {
          "internalType": "address",
          "name": "_loanManagerAddress",
          "type": "address"
        },
        {
          "internalType": "address",
          "name": "_routerAddress",
          "type": "address"
        },
        {
          "internalType": "address",
          "name": "_usdcAddress",
          "type": "address"
        }
      ],
      "stateMutability": "nonpayable",
      "type": "constructor"
    },
    {
      "anonymous": false,
      "inputs": [
        {
          "indexed": true,
          "internalType": "address",
          "name": "borrower",
          "type": "address"
        },
        {
          "indexed": false,
          "internalType": "uint256",
          "name": "loanIndex",
          "type": "uint256"
        },
        {
          "indexed": false,
          "internalType": "uint256",
          "name": "collateralAmount",
          "type": "uint256"
        }
      ],
      "name": "CollateralLiquidated",
      "type": "event"
    },
    {
      "anonymous": false,
      "inputs": [
        {
          "indexed": true,
          "internalType": "address",
          "name": "member",
          "type": "address"
        },
        {
          "indexed": false,
          "internalType": "uint256",
          "name": "interestAmount",
          "type": "uint256"
        }
      ],
      "name": "InterestAccrued",
      "type": "event"
    },
    {
      "inputs": [],
      "name": "MEMBER_ROLE",
      "outputs": [
        {
          "internalType": "bytes32",
          "name": "",
          "type": "bytes32"
        }
      ],
      "stateMutability": "view",
      "type": "function"
    },
    {
      "inputs": [
        {
          "internalType": "address",
          "name": "_member",
          "type": "address"
        }
      ],
      "name": "accrueInterest",
      "outputs": [],
      "stateMutability": "nonpayable",
      "type": "function"
    },
    {
      "inputs": [
        {
          "internalType": "address",
          "name": "_borrower",
          "type": "address"
        },
        {
          "internalType": "uint256",
          "name": "_loanIndex",
          "type": "uint256"
        }
      ],
      "name": "checkAndLiquidate",
      "outputs": [],
      "stateMutability": "nonpayable",
      "type": "function"
    },
    {
      "inputs": [],
      "name": "collateralRatio",
      "outputs": [
        {
          "internalType": "uint256",
          "name": "",
          "type": "uint256"
        }
      ],
      "stateMutability": "view",
      "type": "function"
    },
    {
      "inputs": [],
      "name": "distributeInterest",
      "outputs": [],
      "stateMutability": "nonpayable",
      "type": "function"
    },
    {
      "inputs": [],
      "name": "fundingPool",
      "outputs": [
        {
          "internalType": "contract FundingPool",
          "name": "",
          "type": "address"
        }
      ],
      "stateMutability": "view",
      "type": "function"
    },
    {
      "inputs": [
        {
          "internalType": "address",
          "name": "_member",
          "type": "address"
        }
      ],
      "name": "getUSDCInterestAccrued",
      "outputs": [
        {
          "internalType": "uint256",
          "name": "",
          "type": "uint256"
        }
      ],
      "stateMutability": "view",
      "type": "function"
    },
    {
      "inputs": [],
      "name": "interestRate",
      "outputs": [
        {
          "internalType": "uint256",
          "name": "",
          "type": "uint256"
        }
      ],
      "stateMutability": "view",
      "type": "function"
    },
    {
      "inputs": [
        {
          "internalType": "address",
          "name": "_borrower",
          "type": "address"
        },
        {
          "internalType": "uint256",
          "name": "_loanIndex",
          "type": "uint256"
        }
      ],
      "name": "liquidateCollateral",
      "outputs": [],
      "stateMutability": "nonpayable",
      "type": "function"
    },
    {
      "inputs": [],
      "name": "loanManager",
      "outputs": [
        {
          "internalType": "contract LoanManager",
          "name": "",
          "type": "address"
        }
      ],
      "stateMutability": "view",
      "type": "function"
    },
    {
      "inputs": [
        {
          "internalType": "address",
          "name": "_borrower",
          "type": "address"
        },
        {
          "internalType": "uint256",
          "name": "_loanIndex",
          "type": "uint256"
        }
      ],
      "name": "processLoanApproval",
      "outputs": [],
      "stateMutability": "nonpayable",
      "type": "function"
    },
    {
      "inputs": [
        {
          "internalType": "address",
          "name": "_borrower",
          "type": "address"
        },
        {
          "internalType": "uint256",
          "name": "_loanIndex",
          "type": "uint256"
        },
        {
          "internalType": "uint256",
          "name": "_amount",
          "type": "uint256"
        }
      ],
      "name": "processLoanRepayment",
      "outputs": [],
      "stateMutability": "nonpayable",
      "type": "function"
    },
    {
      "inputs": [],
      "name": "uniswapFactory",
      "outputs": [
        {
          "internalType": "contract IUniswapV2Factory",
          "name": "",
          "type": "address"
        }
      ],
      "stateMutability": "view",
      "type": "function"
    },
    {
      "inputs": [],
      "name": "uniswapRouter",
      "outputs": [
        {
          "internalType": "contract IUniswapV2Router02",
          "name": "",
          "type": "address"
        }
      ],
      "stateMutability": "view",
      "type": "function"
    },
    {
      "inputs": [],
      "name": "usdcAddress",
      "outputs": [
        {
          "internalType": "address",
          "name": "",
          "type": "address"
        }
      ],
      "stateMutability": "view",
      "type": "function"
    }
  ],
  "bytecode": "0x60806040526005600255609660035534801561001a57600080fd5b5060405161136838038061136883398101604081905261003991610284565b6001600160a01b0384166100945760405162461bcd60e51b815260206004820152601b60248201527f496e76616c69642046756e64696e67506f6f6c2061646472657373000000000060448201526064015b60405180910390fd5b6001600160a01b0383166100ea5760405162461bcd60e51b815260206004820152601b60248201527f496e76616c6964204c6f616e4d616e6167657220616464726573730000000000604482015260640161008b565b6001600160a01b0382166101405760405162461bcd60e51b815260206004820152601e60248201527f496e76616c696420556e697377617020726f7574657220616464726573730000604482015260640161008b565b6001600160a01b0381166101965760405162461bcd60e51b815260206004820152601460248201527f496e76616c696420555344432061646472657373000000000000000000000000604482015260640161008b565b600080546001600160a01b038087166001600160a01b0319928316179092556001805486841690831617905560048054858416908316811782556006805494861694909316939093179091556040805163c45a015560e01b8152905163c45a0155928281019260209291908290030181865afa15801561021a573d6000803e3d6000fd5b505050506040513d601f19601f8201168201806040525081019061023e91906102d8565b600580546001600160a01b0319166001600160a01b0392909216919091179055506102fa92505050565b80516001600160a01b038116811461027f57600080fd5b919050565b6000806000806080858703121561029a57600080fd5b6102a385610268565b93506102b160208601610268565b92506102bf60408601610268565b91506102cd60608601610268565b905092959194509250565b6000602082840312156102ea57600080fd5b6102f382610268565b9392505050565b61105f806103096000396000f3fe608060405234801561001057600080fd5b50600436106100f55760003560e01c80638245cb8611610097578063a10f469e11610066578063a10f469e146101e3578063b3ccbcfe1461020a578063b4eae1cb1461021d578063f6a1fe941461022657600080fd5b80638245cb86146101a25780638b3651ad146101b55780638bdb2afa146101bd5780639198e515146101d057600080fd5b80633c6170fb116100d35780633c6170fb146101525780636def930114610173578063735de9f7146101865780637c3a00fd1461019957600080fd5b806302d45457146100fa5780630d3239e51461012a5780631cd9b0cb1461013f575b600080fd5b60065461010d906001600160a01b031681565b6040516001600160a01b0390911681526020015b60405180910390f35b61013d610138366004610b8e565b610239565b005b61013d61014d366004610b8e565b6102f7565b610165610160366004610bba565b6103c7565b604051908152602001610121565b61013d610181366004610bde565b61043c565b60045461010d906001600160a01b031681565b61016560025481565b61013d6101b0366004610b8e565b6104ae565b61013d610782565b60055461010d906001600160a01b031681565b61013d6101de366004610bba565b61089b565b6101657f829b824e2329e205435d941c9f13baf578548505283d29261236d8e6596d463681565b60015461010d906001600160a01b031681565b61016560035481565b60005461010d906001600160a01b031681565b6001546040516306cc477960e51b81526001600160a01b038481166004830152600092169063d988ef2090602401600060405180830381865afa158015610284573d6000803e3d6000fd5b505050506040513d6000823e601f3d908101601f191682016040526102ac9190810190610cc8565b905060008183815181106102c2576102c2610def565b602002602001015190508060c001511580156102e2575080610100015142115b156102f1576102f184846104ae565b50505050565b600154604051639f63f5c360e01b81526001600160a01b0384811660048301526024820184905290911690639f63f5c390604401600060405180830381600087803b15801561034557600080fd5b505af1158015610359573d6000803e3d6000fd5b505060015460405163b22d62f360e01b81526001600160a01b03868116600483015260248201869052909116925063b22d62f39150604401600060405180830381600087803b1580156103ab57600080fd5b505af11580156103bf573d6000803e3d6000fd5b505050505050565b60008054604051633c6170fb60e01b81526001600160a01b03848116600483015290911690633c6170fb90602401602060405180830381865afa158015610412573d6000803e3d6000fd5b505050506040513d601f19601f820116820180604052508101906104369190610e05565b92915050565b600154604051631014ba7b60e31b81526001600160a01b0385811660048301526024820185905260448201849052909116906380a5d3d890606401600060405180830381600087803b15801561049157600080fd5b505af11580156104a5573d6000803e3d6000fd5b50505050505050565b6001546040516306cc477960e51b81526001600160a01b038481166004830152600092169063d988ef2090602401600060405180830381865afa1580156104f9573d6000803e3d6000fd5b505050506040513d6000823e601f3d908101601f191682016040526105219190810190610cc8565b9050600081838151811061053757610537610def565b602002602001015190508060c00151156105985760405162461bcd60e51b815260206004820152601760248201527f4c6f616e20697320616c7265616479207265706169642e00000000000000000060448201526064015b60405180910390fd5b80610100015142116105ec5760405162461bcd60e51b815260206004820152601d60248201527f4c6f616e20647565206461746520686173206e6f74207061737365642e000000604482015260640161058f565b6000546060820151604051634782f77960e01b81526001600160a01b0387811660048301526024820192909252911690634782f77990604401600060405180830381600087803b15801561063f57600080fd5b505af1158015610653573d6000803e3d6000fd5b50505050600061066682606001516109e5565b60005460405163f688bcfb60e01b8152600481018390529192506001600160a01b03169063f688bcfb90602401600060405180830381600087803b1580156106ad57600080fd5b505af11580156106c1573d6000803e3d6000fd5b505060015460405163f59a061760e01b81526001600160a01b03898116600483015260248201899052909116925063f59a06179150604401600060405180830381600087803b15801561071357600080fd5b505af1158015610727573d6000803e3d6000fd5b50505050846001600160a01b03167f4f65008ff243a1aab5777a6563d91c319b667f92b3f74af652fc9cd4f247d20b858460600151604051610773929190918252602082015260400190565b60405180910390a25050505050565b60008060009054906101000a90046001600160a01b03166001600160a01b031663a74d47726040518163ffffffff1660e01b8152600401602060405180830381865afa1580156107d6573d6000803e3d6000fd5b505050506040513d601f19601f820116820180604052508101906107fa9190610e1e565b6001600160a01b0316637c0f6b356040518163ffffffff1660e01b8152600401600060405180830381865afa158015610837573d6000803e3d6000fd5b505050506040513d6000823e601f3d908101601f1916820160405261085f9190810190610e3b565b905060005b81518110156108975761088f82828151811061088257610882610def565b602002602001015161089b565b600101610864565b5050565b60008054604051636802471760e01b81526001600160a01b03848116600483015290911690636802471790602401602060405180830381865afa1580156108e6573d6000803e3d6000fd5b505050506040513d601f19601f8201168201806040525081019061090a9190610e05565b9050600061016d6064600254846109219190610ee6565b61092b9190610efd565b6109359190610efd565b600054604051635ffa16ef60e01b81526001600160a01b03868116600483015260248201849052929350911690635ffa16ef90604401600060405180830381600087803b15801561098557600080fd5b505af1158015610999573d6000803e3d6000fd5b50505050826001600160a01b03167f5e804d42ae3b860f881d11cb44a4bb1f2f0d5b3d081f5539a32d6f97b629d978826040516109d891815260200190565b60405180910390a2505050565b60408051600280825260608201835260009283929190602083019080368337505060048054604080516315ab88c960e31b815290519495506001600160a01b039091169363ad5c46489350818301926020928290030181865afa158015610a50573d6000803e3d6000fd5b505050506040513d601f19601f82011682018060405250810190610a749190610e1e565b81600081518110610a8757610a87610def565b6001600160a01b039283166020918202929092010152600654825191169082906001908110610ab857610ab8610def565b6001600160a01b03928316602091820292909201015260045460009116637ff36ab585838530610aea42610e10610f1f565b6040518663ffffffff1660e01b8152600401610b099493929190610f32565b60006040518083038185885af1158015610b27573d6000803e3d6000fd5b50505050506040513d6000823e601f3d908101601f19168201604052610b509190810190610f9d565b905080600181518110610b6557610b65610def565b602002602001015192505050919050565b6001600160a01b0381168114610b8b57600080fd5b50565b60008060408385031215610ba157600080fd5b8235610bac81610b76565b946020939093013593505050565b600060208284031215610bcc57600080fd5b8135610bd781610b76565b9392505050565b600080600060608486031215610bf357600080fd5b8335610bfe81610b76565b95602085013595506040909401359392505050565b634e487b7160e01b600052604160045260246000fd5b604051610120810167ffffffffffffffff81118282101715610c4d57610c4d610c13565b60405290565b604051601f8201601f1916810167ffffffffffffffff81118282101715610c7c57610c7c610c13565b604052919050565b600067ffffffffffffffff821115610c9e57610c9e610c13565b5060051b60200190565b8051610cb381610b76565b919050565b80518015158114610cb357600080fd5b600060208284031215610cda57600080fd5b815167ffffffffffffffff811115610cf157600080fd5b8201601f81018413610d0257600080fd5b8051610d15610d1082610c84565b610c53565b8082825260208201915060206101208402850101925086831115610d3857600080fd5b6020840193505b82841015610de5576101208488031215610d5857600080fd5b610d60610c29565b84518152610d7060208601610ca8565b6020820152604085810151908201526060808601519082015260808086015190820152610d9f60a08601610cb8565b60a0820152610db060c08601610cb8565b60c0820152610dc160e08601610cb8565b60e08201526101008581015190820152825261012090930192602090910190610d3f565b9695505050505050565b634e487b7160e01b600052603260045260246000fd5b600060208284031215610e1757600080fd5b5051919050565b600060208284031215610e3057600080fd5b8151610bd781610b76565b600060208284031215610e4d57600080fd5b815167ffffffffffffffff811115610e6457600080fd5b8201601f81018413610e7557600080fd5b8051610e83610d1082610c84565b8082825260208201915060208360051b850101925086831115610ea557600080fd5b6020840193505b82841015610de5578351610ebf81610b76565b825260209384019390910190610eac565b634e487b7160e01b600052601160045260246000fd5b808202811582820484141761043657610436610ed0565b600082610f1a57634e487b7160e01b600052601260045260246000fd5b500490565b8082018082111561043657610436610ed0565b6000608082018683526080602084015280865180835260a08501915060208801925060005b81811015610f7e5783516001600160a01b0316835260209384019390920191600101610f57565b50506001600160a01b0395909516604084015250506060015292915050565b600060208284031215610faf57600080fd5b815167ffffffffffffffff811115610fc657600080fd5b8201601f81018413610fd757600080fd5b8051610fe5610d1082610c84565b8082825260208201915060208360051b85010192508683111561100757600080fd5b6020840193505b82841015610de557835182526020938401939091019061100e56fea264697066735822122018b19d145ee812e4200adfd9d01e454178fed9b7a3272cef925fdedf7999041264736f6c634300081a0033",
  "linkReferences": {},
  "deployedLinkReferences": {}
}