{
  "_format": "hh-sol-artifact-1",
  "contractName": "FundingPool",
  "sourceName": "contracts/FundingPool.sol",
  "abi": [
    {
      "inputs": [
        {
          "internalType": "address",
          "name": "_memberRegistryAddress",
          "type": "address"
        },
        {
          "internalType": "address",
          "name": "_usdcAddress",
          "type": "address"
        }
      ],
      "stateMutability": "nonpayable",
      "type": "constructor"
    },
    {
      "anonymous": false,
      "inputs": [
        {
          "indexed": true,
          "internalType": "address",
          "name": "borrower",
          "type": "address"
        },
        {
          "indexed": false,
          "internalType": "uint256",
          "name": "collateralAmount",
          "type": "uint256"
        }
      ],
      "name": "CollateralLiquidated",
      "type": "event"
    },
    {
      "anonymous": false,
      "inputs": [
        {
          "indexed": true,
          "internalType": "address",
          "name": "member",
          "type": "address"
        },
        {
          "indexed": false,
          "internalType": "uint256",
          "name": "amount",
          "type": "uint256"
        }
      ],
      "name": "EthDeposited",
      "type": "event"
    },
    {
      "anonymous": false,
      "inputs": [
        {
          "indexed": true,
          "internalType": "address",
          "name": "member",
          "type": "address"
        },
        {
          "indexed": false,
          "internalType": "uint256",
          "name": "amount",
          "type": "uint256"
        }
      ],
      "name": "EthWithdrawn",
      "type": "event"
    },
    {
      "anonymous": false,
      "inputs": [
        {
          "indexed": true,
          "internalType": "address",
          "name": "member",
          "type": "address"
        },
        {
          "indexed": false,
          "internalType": "uint256",
          "name": "amount",
          "type": "uint256"
        }
      ],
      "name": "InterestPaid",
      "type": "event"
    },
    {
      "anonymous": false,
      "inputs": [
        {
          "indexed": true,
          "internalType": "address",
          "name": "member",
          "type": "address"
        }
      ],
      "name": "MemberRegistered",
      "type": "event"
    },
    {
      "anonymous": false,
      "inputs": [
        {
          "indexed": true,
          "internalType": "address",
          "name": "member",
          "type": "address"
        },
        {
          "indexed": false,
          "internalType": "uint256",
          "name": "amount",
          "type": "uint256"
        }
      ],
      "name": "UsdcDeposited",
      "type": "event"
    },
    {
      "anonymous": false,
      "inputs": [
        {
          "indexed": true,
          "internalType": "address",
          "name": "to",
          "type": "address"
        },
        {
          "indexed": false,
          "internalType": "uint256",
          "name": "amount",
          "type": "uint256"
        }
      ],
      "name": "UsdcTransferred",
      "type": "event"
    },
    {
      "anonymous": false,
      "inputs": [
        {
          "indexed": true,
          "internalType": "address",
          "name": "member",
          "type": "address"
        },
        {
          "indexed": false,
          "internalType": "uint256",
          "name": "amount",
          "type": "uint256"
        }
      ],
      "name": "UsdcWithdrawn",
      "type": "event"
    },
    {
      "inputs": [
        {
          "internalType": "address",
          "name": "_member",
          "type": "address"
        },
        {
          "internalType": "uint256",
          "name": "_amount",
          "type": "uint256"
        }
      ],
      "name": "addUSDCBalance",
      "outputs": [],
      "stateMutability": "nonpayable",
      "type": "function"
    },
    {
      "inputs": [],
      "name": "depositCollateral",
      "outputs": [],
      "stateMutability": "payable",
      "type": "function"
    },
    {
      "inputs": [],
      "name": "depositETH",
      "outputs": [],
      "stateMutability": "payable",
      "type": "function"
    },
    {
      "inputs": [
        {
          "internalType": "uint256",
          "name": "_amount",
          "type": "uint256"
        }
      ],
      "name": "depositUSDC",
      "outputs": [],
      "stateMutability": "nonpayable",
      "type": "function"
    },
    {
      "inputs": [],
      "name": "distributeInterest",
      "outputs": [],
      "stateMutability": "nonpayable",
      "type": "function"
    },
    {
      "inputs": [
        {
          "internalType": "address",
          "name": "",
          "type": "address"
        }
      ],
      "name": "ethBalances",
      "outputs": [
        {
          "internalType": "uint256",
          "name": "",
          "type": "uint256"
        }
      ],
      "stateMutability": "view",
      "type": "function"
    },
    {
      "inputs": [],
      "name": "financeProcessor",
      "outputs": [
        {
          "internalType": "contract FinanceProcessor",
          "name": "",
          "type": "address"
        }
      ],
      "stateMutability": "view",
      "type": "function"
    },
    {
      "inputs": [
        {
          "internalType": "address",
          "name": "_memberAddress",
          "type": "address"
        }
      ],
      "name": "getEthBalance",
      "outputs": [
        {
          "internalType": "uint256",
          "name": "",
          "type": "uint256"
        }
      ],
      "stateMutability": "view",
      "type": "function"
    },
    {
      "inputs": [
        {
          "internalType": "address",
          "name": "_memberAddress",
          "type": "address"
        }
      ],
      "name": "getUSDCBalance",
      "outputs": [
        {
          "internalType": "uint256",
          "name": "",
          "type": "uint256"
        }
      ],
      "stateMutability": "view",
      "type": "function"
    },
    {
      "inputs": [
        {
          "internalType": "address",
          "name": "_member",
          "type": "address"
        }
      ],
      "name": "getUSDCInterestAccrued",
      "outputs": [
        {
          "internalType": "uint256",
          "name": "",
          "type": "uint256"
        }
      ],
      "stateMutability": "view",
      "type": "function"
    },
    {
      "inputs": [
        {
          "internalType": "address",
          "name": "_borrower",
          "type": "address"
        },
        {
          "internalType": "uint256",
          "name": "_loanIndex",
          "type": "uint256"
        }
      ],
      "name": "liquidateCollateral",
      "outputs": [],
      "stateMutability": "nonpayable",
      "type": "function"
    },
    {
      "inputs": [],
      "name": "loanManager",
      "outputs": [
        {
          "internalType": "contract LoanManager",
          "name": "",
          "type": "address"
        }
      ],
      "stateMutability": "view",
      "type": "function"
    },
    {
      "inputs": [],
      "name": "memberRegistry",
      "outputs": [
        {
          "internalType": "contract MemberRegistry",
          "name": "",
          "type": "address"
        }
      ],
      "stateMutability": "view",
      "type": "function"
    },
    {
      "inputs": [
        {
          "internalType": "address",
          "name": "_member",
          "type": "address"
        }
      ],
      "name": "payInterest",
      "outputs": [],
      "stateMutability": "nonpayable",
      "type": "function"
    },
    {
      "inputs": [
        {
          "internalType": "address",
          "name": "_member",
          "type": "address"
        }
      ],
      "name": "registerMember",
      "outputs": [],
      "stateMutability": "nonpayable",
      "type": "function"
    },
    {
      "inputs": [
        {
          "internalType": "address",
          "name": "_financeProcessorAddress",
          "type": "address"
        }
      ],
      "name": "setFinanceProcessor",
      "outputs": [],
      "stateMutability": "nonpayable",
      "type": "function"
    },
    {
      "inputs": [
        {
          "internalType": "address",
          "name": "_loanManagerAddress",
          "type": "address"
        }
      ],
      "name": "setLoanManager",
      "outputs": [],
      "stateMutability": "nonpayable",
      "type": "function"
    },
    {
      "inputs": [],
      "name": "totalEthDeposits",
      "outputs": [
        {
          "internalType": "uint256",
          "name": "",
          "type": "uint256"
        }
      ],
      "stateMutability": "view",
      "type": "function"
    },
    {
      "inputs": [],
      "name": "totalUsdcDeposits",
      "outputs": [
        {
          "internalType": "uint256",
          "name": "",
          "type": "uint256"
        }
      ],
      "stateMutability": "view",
      "type": "function"
    },
    {
      "inputs": [
        {
          "internalType": "address",
          "name": "_to",
          "type": "address"
        }
      ],
      "name": "transferAllUSDC",
      "outputs": [],
      "stateMutability": "nonpayable",
      "type": "function"
    },
    {
      "inputs": [
        {
          "internalType": "address",
          "name": "",
          "type": "address"
        }
      ],
      "name": "usdcBalances",
      "outputs": [
        {
          "internalType": "uint256",
          "name": "",
          "type": "uint256"
        }
      ],
      "stateMutability": "view",
      "type": "function"
    },
    {
      "inputs": [
        {
          "internalType": "address",
          "name": "",
          "type": "address"
        }
      ],
      "name": "usdcInterestAccrued",
      "outputs": [
        {
          "internalType": "uint256",
          "name": "",
          "type": "uint256"
        }
      ],
      "stateMutability": "view",
      "type": "function"
    },
    {
      "inputs": [],
      "name": "usdcToken",
      "outputs": [
        {
          "internalType": "contract IERC20",
          "name": "",
          "type": "address"
        }
      ],
      "stateMutability": "view",
      "type": "function"
    },
    {
      "inputs": [
        {
          "internalType": "uint256",
          "name": "_amount",
          "type": "uint256"
        }
      ],
      "name": "withdrawETH",
      "outputs": [],
      "stateMutability": "nonpayable",
      "type": "function"
    },
    {
      "inputs": [
        {
          "internalType": "uint256",
          "name": "_amount",
          "type": "uint256"
        }
      ],
      "name": "withdrawUSDC",
      "outputs": [],
      "stateMutability": "nonpayable",
      "type": "function"
    }
  ],
  "bytecode": "0x6080604052348015600f57600080fd5b50604051611274380380611274833981016040819052602c916077565b600180546001600160a01b039384166001600160a01b0319918216179091556000805492909316911617905560a5565b80516001600160a01b0381168114607257600080fd5b919050565b60008060408385031215608957600080fd5b609083605c565b9150609c60208401605c565b90509250929050565b6111c0806100b46000396000f3fe6080604052600436106101665760003560e01c8063a74d4772116100d1578063d007c6441161008a578063f1e6d76111610064578063f1e6d761146104ae578063f6326fb314610321578063f688bcfb146104c4578063fcb4888e146104e457600080fd5b8063d007c6441461044e578063db81f99b1461046e578063f14210a61461048e57600080fd5b8063a74d477214610374578063a99c68c514610394578063b3ccbcfe146103c1578063b47bca5c146103e1578063bb9db0c814610401578063c0c298221461042157600080fd5b80635ffa16ef116101235780635ffa16ef146102cb57806368024717146102eb5780636f758140146103215780637e29b85d146103295780638245cb861461033f5780638b3651ad1461035f57600080fd5b806311eac8551461016b57806330def696146101a85780633c6170fb146101e75780633cfba0e31461022b5780634d2301cc146102585780635772ae701461028e575b600080fd5b34801561017757600080fd5b5060005461018b906001600160a01b031681565b6040516001600160a01b0390911681526020015b60405180910390f35b3480156101b457600080fd5b506101e56101c3366004610eeb565b600380546001600160a01b0319166001600160a01b0392909216919091179055565b005b3480156101f357600080fd5b5061021d610202366004610eeb565b6001600160a01b031660009081526006602052604090205490565b60405190815260200161019f565b34801561023757600080fd5b5061021d610246366004610eeb565b60046020526000908152604090205481565b34801561026457600080fd5b5061021d610273366004610eeb565b6001600160a01b031660009081526004602052604090205490565b34801561029a57600080fd5b506101e56102a9366004610eeb565b600280546001600160a01b0319166001600160a01b0392909216919091179055565b3480156102d757600080fd5b506101e56102e6366004610f0f565b610504565b3480156102f757600080fd5b5061021d610306366004610eeb565b6001600160a01b031660009081526005602052604090205490565b6101e5610535565b34801561033557600080fd5b5061021d60085481565b34801561034b57600080fd5b506101e561035a366004610f0f565b6105a9565b34801561036b57600080fd5b506101e5610613565b34801561038057600080fd5b5060015461018b906001600160a01b031681565b3480156103a057600080fd5b5061021d6103af366004610eeb565b60056020526000908152604090205481565b3480156103cd57600080fd5b5060025461018b906001600160a01b031681565b3480156103ed57600080fd5b506101e56103fc366004610eeb565b61067d565b34801561040d57600080fd5b5060035461018b906001600160a01b031681565b34801561042d57600080fd5b5061021d61043c366004610eeb565b60066020526000908152604090205481565b34801561045a57600080fd5b506101e5610469366004610eeb565b610812565b34801561047a57600080fd5b506101e5610489366004610f3b565b6108f5565b34801561049a57600080fd5b506101e56104a9366004610f3b565b610a53565b3480156104ba57600080fd5b5061021d60075481565b3480156104d057600080fd5b506101e56104df366004610f3b565b610c1b565b3480156104f057600080fd5b506101e56104ff366004610eeb565b610de1565b6001600160a01b0382166000908152600560205260408120805483929061052c908490610f6a565b90915550505050565b3360009081526004602052604081208054349290610554908490610f6a565b92505081905550346007600082825461056d9190610f6a565b909155505060405134815233907f66ff7c8f71ccc7c36152a41920d0d3b46ef3034359f76aa1498ed4478c204b5c9060200160405180910390a2565b600354604051634122e5c360e11b81526001600160a01b0384811660048301526024820184905290911690638245cb8690604401600060405180830381600087803b1580156105f757600080fd5b505af115801561060b573d6000803e3d6000fd5b505050505050565b600360009054906101000a90046001600160a01b03166001600160a01b0316638b3651ad6040518163ffffffff1660e01b8152600401600060405180830381600087803b15801561066357600080fd5b505af1158015610677573d6000803e3d6000fd5b50505050565b600080546040516370a0823160e01b81523060048201526001600160a01b03909116906370a0823190602401602060405180830381865afa1580156106c6573d6000803e3d6000fd5b505050506040513d601f19601f820116820180604052508101906106ea9190610f83565b9050600081116107385760405162461bcd60e51b81526020600482015260146024820152732737902aa9a221903a37903a3930b739b332b91760611b60448201526064015b60405180910390fd5b60005460405163a9059cbb60e01b81526001600160a01b038481166004830152602482018490529091169063a9059cbb906044016020604051808303816000875af115801561078b573d6000803e3d6000fd5b505050506040513d601f19601f820116820180604052508101906107af9190610fb1565b6107cb5760405162461bcd60e51b815260040161072f90610fcc565b816001600160a01b03167fdf44238f7ebaaa785d34d583d1f33c08741dda2b7ebdfc83bfd1a3d17d46d5378260405161080691815260200190565b60405180910390a25050565b600354604051633c6170fb60e01b81526001600160a01b0383811660048301526000921690633c6170fb90602401602060405180830381865afa15801561085d573d6000803e3d6000fd5b505050506040513d601f19601f820116820180604052508101906108819190610f83565b905080156108f1576001600160a01b038216600090815260056020526040812080548392906108b1908490610f6a565b90915550506040518181526001600160a01b038316907f16cbc685358ca7d4e6b273dcdf2cb5d18c80b950aa2319b519756cd016233a6c90602001610806565b5050565b3360009081526005602052604090205481111561094c5760405162461bcd60e51b815260206004820152601560248201527424b739bab33334b1b4b2b73a103130b630b731b29760591b604482015260640161072f565b336000908152600560205260408120805483929061096b908490610ff6565b9250508190555080600860008282546109849190610ff6565b909155505060005460405163a9059cbb60e01b8152336004820152602481018390526001600160a01b039091169063a9059cbb906044016020604051808303816000875af11580156109da573d6000803e3d6000fd5b505050506040513d601f19601f820116820180604052508101906109fe9190610fb1565b610a1a5760405162461bcd60e51b815260040161072f90610fcc565b60405181815233907f0d1589f631deb2542273b007140b132a18d48a4303d103fe64d353db07e01b57906020015b60405180910390a250565b33600090815260046020526040902054811115610aaa5760405162461bcd60e51b815260206004820152601560248201527424b739bab33334b1b4b2b73a103130b630b731b29760591b604482015260640161072f565b600254604051636420ec2960e01b81523360048201526001600160a01b0390911690636420ec2990602401602060405180830381865afa158015610af2573d6000803e3d6000fd5b505050506040513d601f19601f82011682018060405250810190610b169190610fb1565b610b7e5760405162461bcd60e51b815260206004820152603360248201527f4f75747374616e64696e67206c6f616e206d75737420626520726570616964206044820152723132b337b932903bb4ba34323930bbb4b7339760691b606482015260840161072f565b3360009081526004602052604081208054839290610b9d908490610ff6565b925050819055508060076000828254610bb69190610ff6565b9091555050604051339082156108fc029083906000818181858888f19350505050158015610be8573d6000803e3d6000fd5b5060405181815233907f8455ae6be5d92f1df1c3c1484388e247a36c7e60d72055ae216dbc258f257d4b90602001610a48565b600054604051636eb1769f60e11b815233600482015230602482015282916001600160a01b03169063dd62ed3e90604401602060405180830381865afa158015610c69573d6000803e3d6000fd5b505050506040513d601f19601f82011682018060405250810190610c8d9190610f83565b1015610cdb5760405162461bcd60e51b815260206004820152601960248201527f416c6c6f77616e6365206e6f742073756666696369656e742e00000000000000604482015260640161072f565b6000546040516323b872dd60e01b8152336004820152306024820152604481018390526001600160a01b03909116906323b872dd906064016020604051808303816000875af1158015610d32573d6000803e3d6000fd5b505050506040513d601f19601f82011682018060405250810190610d569190610fb1565b610d725760405162461bcd60e51b815260040161072f90610fcc565b3360009081526005602052604081208054839290610d91908490610f6a565b925050819055508060086000828254610daa9190610f6a565b909155505060405181815233907f36e229bdaedfa85d503535ae31c3ac9e40d88f1ab4fa53870ef2da82df48e99090602001610a48565b60015460405163156d12cb60e11b81526001600160a01b03838116600483015290911690632ada259690602401600060405180830381865afa158015610e2b573d6000803e3d6000fd5b505050506040513d6000823e601f3d908101601f19168201604052610e539190810190611084565b60400151610e9c5760405162461bcd60e51b815260206004820152601660248201527526b2b6b132b9103737ba103932b3b4b9ba32b932b21760511b604482015260640161072f565b6040516001600160a01b038216907f92fabfa210df88d92c2f5a07ddd43a985b208d8b19b7a78ba1284aa4b287d86290600090a250565b6001600160a01b0381168114610ee857600080fd5b50565b600060208284031215610efd57600080fd5b8135610f0881610ed3565b9392505050565b60008060408385031215610f2257600080fd5b8235610f2d81610ed3565b946020939093013593505050565b600060208284031215610f4d57600080fd5b5035919050565b634e487b7160e01b600052601160045260246000fd5b80820180821115610f7d57610f7d610f54565b92915050565b600060208284031215610f9557600080fd5b5051919050565b80518015158114610fac57600080fd5b919050565b600060208284031215610fc357600080fd5b610f0882610f9c565b60208082526010908201526f2a3930b739b332b9103330b4b632b21760811b604082015260600190565b81810381811115610f7d57610f7d610f54565b634e487b7160e01b600052604160045260246000fd5b6040516060810167ffffffffffffffff8111828210171561104257611042611009565b60405290565b604051601f8201601f1916810167ffffffffffffffff8111828210171561107157611071611009565b604052919050565b8051610fac81610ed3565b60006020828403121561109657600080fd5b815167ffffffffffffffff8111156110ad57600080fd5b8201606081850312156110bf57600080fd5b6110c761101f565b815167ffffffffffffffff8111156110de57600080fd5b8201601f810186136110ef57600080fd5b805167ffffffffffffffff81111561110957611109611009565b61111c601f8201601f1916602001611048565b81815287602083850101111561113157600080fd5b60005b8281101561115057602081850181015183830182015201611134565b5060006020838301015280845250505061116c60208301611079565b602082015261117d60408301610f9c565b604082015294935050505056fea2646970667358221220f35408629ae93b22d4fd11763e037b5136ab87b93647b562cd14255280289adf64736f6c634300081a0033",
  "linkReferences": {},
  "deployedLinkReferences": {}
}