{
  "_format": "hh-sol-artifact-1",
  "contractName": "FundingPool",
  "sourceName": "contracts/FundingPool.sol",
  "abi": [
    {
      "inputs": [
        {
          "internalType": "address",
          "name": "_memberRegistryAddress",
          "type": "address"
        },
        {
          "internalType": "address",
          "name": "_usdcAddress",
          "type": "address"
        }
      ],
      "stateMutability": "nonpayable",
      "type": "constructor"
    },
    {
      "anonymous": false,
      "inputs": [
        {
          "indexed": true,
          "internalType": "address",
          "name": "borrower",
          "type": "address"
        },
        {
          "indexed": false,
          "internalType": "uint256",
          "name": "collateralAmount",
          "type": "uint256"
        }
      ],
      "name": "CollateralLiquidated",
      "type": "event"
    },
    {
      "anonymous": false,
      "inputs": [
        {
          "indexed": true,
          "internalType": "address",
          "name": "member",
          "type": "address"
        },
        {
          "indexed": false,
          "internalType": "uint256",
          "name": "amount",
          "type": "uint256"
        }
      ],
      "name": "EthDeposited",
      "type": "event"
    },
    {
      "anonymous": false,
      "inputs": [
        {
          "indexed": true,
          "internalType": "address",
          "name": "member",
          "type": "address"
        },
        {
          "indexed": false,
          "internalType": "uint256",
          "name": "amount",
          "type": "uint256"
        }
      ],
      "name": "EthWithdrawn",
      "type": "event"
    },
    {
      "anonymous": false,
      "inputs": [
        {
          "indexed": true,
          "internalType": "address",
          "name": "member",
          "type": "address"
        },
        {
          "indexed": false,
          "internalType": "uint256",
          "name": "amount",
          "type": "uint256"
        }
      ],
      "name": "InterestPaid",
      "type": "event"
    },
    {
      "anonymous": false,
      "inputs": [
        {
          "indexed": true,
          "internalType": "address",
          "name": "member",
          "type": "address"
        }
      ],
      "name": "MemberRegistered",
      "type": "event"
    },
    {
      "anonymous": false,
      "inputs": [
        {
          "indexed": true,
          "internalType": "address",
          "name": "member",
          "type": "address"
        },
        {
          "indexed": false,
          "internalType": "uint256",
          "name": "amount",
          "type": "uint256"
        }
      ],
      "name": "UsdcDeposited",
      "type": "event"
    },
    {
      "anonymous": false,
      "inputs": [
        {
          "indexed": true,
          "internalType": "address",
          "name": "member",
          "type": "address"
        },
        {
          "indexed": false,
          "internalType": "uint256",
          "name": "amount",
          "type": "uint256"
        }
      ],
      "name": "UsdcWithdrawn",
      "type": "event"
    },
    {
      "inputs": [
        {
          "internalType": "address",
          "name": "_member",
          "type": "address"
        },
        {
          "internalType": "uint256",
          "name": "_amount",
          "type": "uint256"
        }
      ],
      "name": "addUSDCBalance",
      "outputs": [],
      "stateMutability": "nonpayable",
      "type": "function"
    },
    {
      "inputs": [],
      "name": "depositCollateral",
      "outputs": [],
      "stateMutability": "payable",
      "type": "function"
    },
    {
      "inputs": [],
      "name": "depositETH",
      "outputs": [],
      "stateMutability": "payable",
      "type": "function"
    },
    {
      "inputs": [
        {
          "internalType": "uint256",
          "name": "_amount",
          "type": "uint256"
        }
      ],
      "name": "depositUSDC",
      "outputs": [],
      "stateMutability": "nonpayable",
      "type": "function"
    },
    {
      "inputs": [],
      "name": "distributeInterest",
      "outputs": [],
      "stateMutability": "nonpayable",
      "type": "function"
    },
    {
      "inputs": [
        {
          "internalType": "address",
          "name": "",
          "type": "address"
        }
      ],
      "name": "ethBalances",
      "outputs": [
        {
          "internalType": "uint256",
          "name": "",
          "type": "uint256"
        }
      ],
      "stateMutability": "view",
      "type": "function"
    },
    {
      "inputs": [],
      "name": "financeProcessor",
      "outputs": [
        {
          "internalType": "contract FinanceProcessor",
          "name": "",
          "type": "address"
        }
      ],
      "stateMutability": "view",
      "type": "function"
    },
    {
      "inputs": [
        {
          "internalType": "address",
          "name": "_memberAddress",
          "type": "address"
        }
      ],
      "name": "getEthBalance",
      "outputs": [
        {
          "internalType": "uint256",
          "name": "",
          "type": "uint256"
        }
      ],
      "stateMutability": "view",
      "type": "function"
    },
    {
      "inputs": [
        {
          "internalType": "address",
          "name": "_memberAddress",
          "type": "address"
        }
      ],
      "name": "getUSDCBalance",
      "outputs": [
        {
          "internalType": "uint256",
          "name": "",
          "type": "uint256"
        }
      ],
      "stateMutability": "view",
      "type": "function"
    },
    {
      "inputs": [
        {
          "internalType": "address",
          "name": "_member",
          "type": "address"
        }
      ],
      "name": "getUSDCInterestAccrued",
      "outputs": [
        {
          "internalType": "uint256",
          "name": "",
          "type": "uint256"
        }
      ],
      "stateMutability": "view",
      "type": "function"
    },
    {
      "inputs": [
        {
          "internalType": "address",
          "name": "_borrower",
          "type": "address"
        },
        {
          "internalType": "uint256",
          "name": "_loanIndex",
          "type": "uint256"
        }
      ],
      "name": "liquidateCollateral",
      "outputs": [],
      "stateMutability": "nonpayable",
      "type": "function"
    },
    {
      "inputs": [],
      "name": "loanManager",
      "outputs": [
        {
          "internalType": "contract LoanManager",
          "name": "",
          "type": "address"
        }
      ],
      "stateMutability": "view",
      "type": "function"
    },
    {
      "inputs": [],
      "name": "memberRegistry",
      "outputs": [
        {
          "internalType": "contract MemberRegistry",
          "name": "",
          "type": "address"
        }
      ],
      "stateMutability": "view",
      "type": "function"
    },
    {
      "inputs": [
        {
          "internalType": "address",
          "name": "_member",
          "type": "address"
        }
      ],
      "name": "payInterest",
      "outputs": [],
      "stateMutability": "nonpayable",
      "type": "function"
    },
    {
      "inputs": [
        {
          "internalType": "address",
          "name": "_member",
          "type": "address"
        }
      ],
      "name": "registerMember",
      "outputs": [],
      "stateMutability": "nonpayable",
      "type": "function"
    },
    {
      "inputs": [
        {
          "internalType": "address",
          "name": "_financeProcessorAddress",
          "type": "address"
        }
      ],
      "name": "setFinanceProcessor",
      "outputs": [],
      "stateMutability": "nonpayable",
      "type": "function"
    },
    {
      "inputs": [
        {
          "internalType": "address",
          "name": "_loanManagerAddress",
          "type": "address"
        }
      ],
      "name": "setLoanManager",
      "outputs": [],
      "stateMutability": "nonpayable",
      "type": "function"
    },
    {
      "inputs": [],
      "name": "totalEthDeposits",
      "outputs": [
        {
          "internalType": "uint256",
          "name": "",
          "type": "uint256"
        }
      ],
      "stateMutability": "view",
      "type": "function"
    },
    {
      "inputs": [],
      "name": "totalUsdcDeposits",
      "outputs": [
        {
          "internalType": "uint256",
          "name": "",
          "type": "uint256"
        }
      ],
      "stateMutability": "view",
      "type": "function"
    },
    {
      "inputs": [
        {
          "internalType": "address",
          "name": "",
          "type": "address"
        }
      ],
      "name": "usdcBalances",
      "outputs": [
        {
          "internalType": "uint256",
          "name": "",
          "type": "uint256"
        }
      ],
      "stateMutability": "view",
      "type": "function"
    },
    {
      "inputs": [
        {
          "internalType": "address",
          "name": "",
          "type": "address"
        }
      ],
      "name": "usdcInterestAccrued",
      "outputs": [
        {
          "internalType": "uint256",
          "name": "",
          "type": "uint256"
        }
      ],
      "stateMutability": "view",
      "type": "function"
    },
    {
      "inputs": [],
      "name": "usdcToken",
      "outputs": [
        {
          "internalType": "contract IERC20",
          "name": "",
          "type": "address"
        }
      ],
      "stateMutability": "view",
      "type": "function"
    },
    {
      "inputs": [
        {
          "internalType": "uint256",
          "name": "_amount",
          "type": "uint256"
        }
      ],
      "name": "withdrawETH",
      "outputs": [],
      "stateMutability": "nonpayable",
      "type": "function"
    },
    {
      "inputs": [
        {
          "internalType": "uint256",
          "name": "_amount",
          "type": "uint256"
        }
      ],
      "name": "withdrawUSDC",
      "outputs": [],
      "stateMutability": "nonpayable",
      "type": "function"
    }
  ],
  "bytecode": "0x6080604052348015600f57600080fd5b506040516110c93803806110c9833981016040819052602c916077565b600180546001600160a01b039384166001600160a01b0319918216179091556000805492909316911617905560a5565b80516001600160a01b0381168114607257600080fd5b919050565b60008060408385031215608957600080fd5b609083605c565b9150609c60208401605c565b90509250929050565b611015806100b46000396000f3fe60806040526004361061014b5760003560e01c8063a74d4772116100b6578063db81f99b1161006f578063db81f99b14610433578063f14210a614610453578063f1e6d76114610473578063f6326fb314610306578063f688bcfb14610489578063fcb4888e146104a957600080fd5b8063a74d477214610359578063a99c68c514610379578063b3ccbcfe146103a6578063bb9db0c8146103c6578063c0c29822146103e6578063d007c6441461041357600080fd5b80635ffa16ef116101085780635ffa16ef146102b057806368024717146102d05780636f758140146103065780637e29b85d1461030e5780638245cb86146103245780638b3651ad1461034457600080fd5b806311eac8551461015057806330def6961461018d5780633c6170fb146101cc5780633cfba0e3146102105780634d2301cc1461023d5780635772ae7014610273575b600080fd5b34801561015c57600080fd5b50600054610170906001600160a01b031681565b6040516001600160a01b0390911681526020015b60405180910390f35b34801561019957600080fd5b506101ca6101a8366004610d6a565b600380546001600160a01b0319166001600160a01b0392909216919091179055565b005b3480156101d857600080fd5b506102026101e7366004610d6a565b6001600160a01b031660009081526006602052604090205490565b604051908152602001610184565b34801561021c57600080fd5b5061020261022b366004610d6a565b60046020526000908152604090205481565b34801561024957600080fd5b50610202610258366004610d6a565b6001600160a01b031660009081526004602052604090205490565b34801561027f57600080fd5b506101ca61028e366004610d6a565b600280546001600160a01b0319166001600160a01b0392909216919091179055565b3480156102bc57600080fd5b506101ca6102cb366004610d8e565b6104c9565b3480156102dc57600080fd5b506102026102eb366004610d6a565b6001600160a01b031660009081526005602052604090205490565b6101ca6104fa565b34801561031a57600080fd5b5061020260085481565b34801561033057600080fd5b506101ca61033f366004610d8e565b61056e565b34801561035057600080fd5b506101ca6105d8565b34801561036557600080fd5b50600154610170906001600160a01b031681565b34801561038557600080fd5b50610202610394366004610d6a565b60056020526000908152604090205481565b3480156103b257600080fd5b50600254610170906001600160a01b031681565b3480156103d257600080fd5b50600354610170906001600160a01b031681565b3480156103f257600080fd5b50610202610401366004610d6a565b60066020526000908152604090205481565b34801561041f57600080fd5b506101ca61042e366004610d6a565b610642565b34801561043f57600080fd5b506101ca61044e366004610dba565b610729565b34801561045f57600080fd5b506101ca61046e366004610dba565b6108af565b34801561047f57600080fd5b5061020260075481565b34801561049557600080fd5b506101ca6104a4366004610dba565b610a77565b3480156104b557600080fd5b506101ca6104c4366004610d6a565b610c60565b6001600160a01b038216600090815260056020526040812080548392906104f1908490610de9565b90915550505050565b3360009081526004602052604081208054349290610519908490610de9565b9250508190555034600760008282546105329190610de9565b909155505060405134815233907f66ff7c8f71ccc7c36152a41920d0d3b46ef3034359f76aa1498ed4478c204b5c9060200160405180910390a2565b600354604051634122e5c360e11b81526001600160a01b0384811660048301526024820184905290911690638245cb8690604401600060405180830381600087803b1580156105bc57600080fd5b505af11580156105d0573d6000803e3d6000fd5b505050505050565b600360009054906101000a90046001600160a01b03166001600160a01b0316638b3651ad6040518163ffffffff1660e01b8152600401600060405180830381600087803b15801561062857600080fd5b505af115801561063c573d6000803e3d6000fd5b50505050565b600354604051633c6170fb60e01b81526001600160a01b0383811660048301526000921690633c6170fb90602401602060405180830381865afa15801561068d573d6000803e3d6000fd5b505050506040513d601f19601f820116820180604052508101906106b19190610e02565b90508015610725576001600160a01b038216600090815260056020526040812080548392906106e1908490610de9565b90915550506040518181526001600160a01b038316907f16cbc685358ca7d4e6b273dcdf2cb5d18c80b950aa2319b519756cd016233a6c9060200160405180910390a25b5050565b336000908152600560205260409020548111156107855760405162461bcd60e51b815260206004820152601560248201527424b739bab33334b1b4b2b73a103130b630b731b29760591b60448201526064015b60405180910390fd5b33600090815260056020526040812080548392906107a4908490610e1b565b9250508190555080600860008282546107bd9190610e1b565b909155505060005460405163a9059cbb60e01b8152336004820152602481018390526001600160a01b039091169063a9059cbb906044016020604051808303816000875af1158015610813573d6000803e3d6000fd5b505050506040513d601f19601f820116820180604052508101906108379190610e43565b6108765760405162461bcd60e51b815260206004820152601060248201526f2a3930b739b332b9103330b4b632b21760811b604482015260640161077c565b60405181815233907f0d1589f631deb2542273b007140b132a18d48a4303d103fe64d353db07e01b57906020015b60405180910390a250565b336000908152600460205260409020548111156109065760405162461bcd60e51b815260206004820152601560248201527424b739bab33334b1b4b2b73a103130b630b731b29760591b604482015260640161077c565b600254604051636420ec2960e01b81523360048201526001600160a01b0390911690636420ec2990602401602060405180830381865afa15801561094e573d6000803e3d6000fd5b505050506040513d601f19601f820116820180604052508101906109729190610e43565b6109da5760405162461bcd60e51b815260206004820152603360248201527f4f75747374616e64696e67206c6f616e206d75737420626520726570616964206044820152723132b337b932903bb4ba34323930bbb4b7339760691b606482015260840161077c565b33600090815260046020526040812080548392906109f9908490610e1b565b925050819055508060076000828254610a129190610e1b565b9091555050604051339082156108fc029083906000818181858888f19350505050158015610a44573d6000803e3d6000fd5b5060405181815233907f8455ae6be5d92f1df1c3c1484388e247a36c7e60d72055ae216dbc258f257d4b906020016108a4565b600054604051636eb1769f60e11b815233600482015230602482015282916001600160a01b03169063dd62ed3e90604401602060405180830381865afa158015610ac5573d6000803e3d6000fd5b505050506040513d601f19601f82011682018060405250810190610ae99190610e02565b1015610b375760405162461bcd60e51b815260206004820152601960248201527f416c6c6f77616e6365206e6f742073756666696369656e742e00000000000000604482015260640161077c565b6000546040516323b872dd60e01b8152336004820152306024820152604481018390526001600160a01b03909116906323b872dd906064016020604051808303816000875af1158015610b8e573d6000803e3d6000fd5b505050506040513d601f19601f82011682018060405250810190610bb29190610e43565b610bf15760405162461bcd60e51b815260206004820152601060248201526f2a3930b739b332b9103330b4b632b21760811b604482015260640161077c565b3360009081526005602052604081208054839290610c10908490610de9565b925050819055508060086000828254610c299190610de9565b909155505060405181815233907f36e229bdaedfa85d503535ae31c3ac9e40d88f1ab4fa53870ef2da82df48e990906020016108a4565b60015460405163156d12cb60e11b81526001600160a01b03838116600483015290911690632ada259690602401600060405180830381865afa158015610caa573d6000803e3d6000fd5b505050506040513d6000823e601f3d908101601f19168201604052610cd29190810190610ed9565b60400151610d1b5760405162461bcd60e51b815260206004820152601660248201527526b2b6b132b9103737ba103932b3b4b9ba32b932b21760511b604482015260640161077c565b6040516001600160a01b038216907f92fabfa210df88d92c2f5a07ddd43a985b208d8b19b7a78ba1284aa4b287d86290600090a250565b6001600160a01b0381168114610d6757600080fd5b50565b600060208284031215610d7c57600080fd5b8135610d8781610d52565b9392505050565b60008060408385031215610da157600080fd5b8235610dac81610d52565b946020939093013593505050565b600060208284031215610dcc57600080fd5b5035919050565b634e487b7160e01b600052601160045260246000fd5b80820180821115610dfc57610dfc610dd3565b92915050565b600060208284031215610e1457600080fd5b5051919050565b81810381811115610dfc57610dfc610dd3565b80518015158114610e3e57600080fd5b919050565b600060208284031215610e5557600080fd5b610d8782610e2e565b634e487b7160e01b600052604160045260246000fd5b6040516060810167ffffffffffffffff81118282101715610e9757610e97610e5e565b60405290565b604051601f8201601f1916810167ffffffffffffffff81118282101715610ec657610ec6610e5e565b604052919050565b8051610e3e81610d52565b600060208284031215610eeb57600080fd5b815167ffffffffffffffff811115610f0257600080fd5b820160608185031215610f1457600080fd5b610f1c610e74565b815167ffffffffffffffff811115610f3357600080fd5b8201601f81018613610f4457600080fd5b805167ffffffffffffffff811115610f5e57610f5e610e5e565b610f71601f8201601f1916602001610e9d565b818152876020838501011115610f8657600080fd5b60005b82811015610fa557602081850181015183830182015201610f89565b50600060208383010152808452505050610fc160208301610ece565b6020820152610fd260408301610e2e565b604082015294935050505056fea2646970667358221220b111b1ab1e14768ea9ee4fa3fddef054c7f7d7d8b85942dbce4a48df59f9028764736f6c634300081a0033",
  "linkReferences": {},
  "deployedLinkReferences": {}
}