{
  "_format": "hh-sol-artifact-1",
  "contractName": "FundingPool",
  "sourceName": "contracts/FundingPool.sol",
  "abi": [
    {
      "inputs": [
        {
          "internalType": "address",
          "name": "_memberRegistryAddress",
          "type": "address"
        },
        {
          "internalType": "address",
          "name": "_usdcAddress",
          "type": "address"
        }
      ],
      "stateMutability": "nonpayable",
      "type": "constructor"
    },
    {
      "anonymous": false,
      "inputs": [
        {
          "indexed": true,
          "internalType": "address",
          "name": "borrower",
          "type": "address"
        },
        {
          "indexed": false,
          "internalType": "uint256",
          "name": "collateralAmount",
          "type": "uint256"
        }
      ],
      "name": "CollateralLiquidated",
      "type": "event"
    },
    {
      "anonymous": false,
      "inputs": [
        {
          "indexed": true,
          "internalType": "address",
          "name": "member",
          "type": "address"
        },
        {
          "indexed": false,
          "internalType": "uint256",
          "name": "amount",
          "type": "uint256"
        }
      ],
      "name": "EthDeposited",
      "type": "event"
    },
    {
      "anonymous": false,
      "inputs": [
        {
          "indexed": true,
          "internalType": "address",
          "name": "member",
          "type": "address"
        },
        {
          "indexed": false,
          "internalType": "uint256",
          "name": "amount",
          "type": "uint256"
        }
      ],
      "name": "EthWithdrawn",
      "type": "event"
    },
    {
      "anonymous": false,
      "inputs": [
        {
          "indexed": true,
          "internalType": "address",
          "name": "member",
          "type": "address"
        },
        {
          "indexed": false,
          "internalType": "uint256",
          "name": "amount",
          "type": "uint256"
        }
      ],
      "name": "InterestPaid",
      "type": "event"
    },
    {
      "anonymous": false,
      "inputs": [
        {
          "indexed": true,
          "internalType": "address",
          "name": "member",
          "type": "address"
        }
      ],
      "name": "MemberRegistered",
      "type": "event"
    },
    {
      "anonymous": false,
      "inputs": [
        {
          "indexed": true,
          "internalType": "address",
          "name": "member",
          "type": "address"
        },
        {
          "indexed": false,
          "internalType": "uint256",
          "name": "amount",
          "type": "uint256"
        }
      ],
      "name": "UsdcDeposited",
      "type": "event"
    },
    {
      "anonymous": false,
      "inputs": [
        {
          "indexed": true,
          "internalType": "address",
          "name": "to",
          "type": "address"
        },
        {
          "indexed": false,
          "internalType": "uint256",
          "name": "amount",
          "type": "uint256"
        }
      ],
      "name": "UsdcTransferred",
      "type": "event"
    },
    {
      "anonymous": false,
      "inputs": [
        {
          "indexed": true,
          "internalType": "address",
          "name": "member",
          "type": "address"
        },
        {
          "indexed": false,
          "internalType": "uint256",
          "name": "amount",
          "type": "uint256"
        }
      ],
      "name": "UsdcWithdrawn",
      "type": "event"
    },
    {
      "inputs": [
        {
          "internalType": "address",
          "name": "_member",
          "type": "address"
        },
        {
          "internalType": "uint256",
          "name": "_amount",
          "type": "uint256"
        }
      ],
      "name": "addUSDCBalance",
      "outputs": [],
      "stateMutability": "nonpayable",
      "type": "function"
    },
    {
      "inputs": [
        {
          "internalType": "uint256",
          "name": "amount",
          "type": "uint256"
        }
      ],
      "name": "approveLoanManager",
      "outputs": [],
      "stateMutability": "nonpayable",
      "type": "function"
    },
    {
      "inputs": [],
      "name": "depositCollateral",
      "outputs": [],
      "stateMutability": "payable",
      "type": "function"
    },
    {
      "inputs": [],
      "name": "depositETH",
      "outputs": [],
      "stateMutability": "payable",
      "type": "function"
    },
    {
      "inputs": [
        {
          "internalType": "uint256",
          "name": "_amount",
          "type": "uint256"
        }
      ],
      "name": "depositUSDC",
      "outputs": [],
      "stateMutability": "nonpayable",
      "type": "function"
    },
    {
      "inputs": [],
      "name": "distributeInterest",
      "outputs": [],
      "stateMutability": "nonpayable",
      "type": "function"
    },
    {
      "inputs": [
        {
          "internalType": "address",
          "name": "",
          "type": "address"
        }
      ],
      "name": "ethBalances",
      "outputs": [
        {
          "internalType": "uint256",
          "name": "",
          "type": "uint256"
        }
      ],
      "stateMutability": "view",
      "type": "function"
    },
    {
      "inputs": [],
      "name": "financeProcessor",
      "outputs": [
        {
          "internalType": "contract FinanceProcessor",
          "name": "",
          "type": "address"
        }
      ],
      "stateMutability": "view",
      "type": "function"
    },
    {
      "inputs": [
        {
          "internalType": "address",
          "name": "_memberAddress",
          "type": "address"
        }
      ],
      "name": "getEthBalance",
      "outputs": [
        {
          "internalType": "uint256",
          "name": "",
          "type": "uint256"
        }
      ],
      "stateMutability": "view",
      "type": "function"
    },
    {
      "inputs": [
        {
          "internalType": "address",
          "name": "_memberAddress",
          "type": "address"
        }
      ],
      "name": "getUSDCBalance",
      "outputs": [
        {
          "internalType": "uint256",
          "name": "",
          "type": "uint256"
        }
      ],
      "stateMutability": "view",
      "type": "function"
    },
    {
      "inputs": [
        {
          "internalType": "address",
          "name": "_member",
          "type": "address"
        }
      ],
      "name": "getUSDCInterestAccrued",
      "outputs": [
        {
          "internalType": "uint256",
          "name": "",
          "type": "uint256"
        }
      ],
      "stateMutability": "view",
      "type": "function"
    },
    {
      "inputs": [
        {
          "internalType": "address",
          "name": "_borrower",
          "type": "address"
        },
        {
          "internalType": "uint256",
          "name": "_loanIndex",
          "type": "uint256"
        }
      ],
      "name": "liquidateCollateral",
      "outputs": [],
      "stateMutability": "nonpayable",
      "type": "function"
    },
    {
      "inputs": [],
      "name": "loanManager",
      "outputs": [
        {
          "internalType": "contract LoanManager",
          "name": "",
          "type": "address"
        }
      ],
      "stateMutability": "view",
      "type": "function"
    },
    {
      "inputs": [],
      "name": "memberRegistry",
      "outputs": [
        {
          "internalType": "contract MemberRegistry",
          "name": "",
          "type": "address"
        }
      ],
      "stateMutability": "view",
      "type": "function"
    },
    {
      "inputs": [
        {
          "internalType": "address",
          "name": "_member",
          "type": "address"
        }
      ],
      "name": "payInterest",
      "outputs": [],
      "stateMutability": "nonpayable",
      "type": "function"
    },
    {
      "inputs": [
        {
          "internalType": "address",
          "name": "_member",
          "type": "address"
        }
      ],
      "name": "registerMember",
      "outputs": [],
      "stateMutability": "nonpayable",
      "type": "function"
    },
    {
      "inputs": [
        {
          "internalType": "address",
          "name": "_financeProcessorAddress",
          "type": "address"
        }
      ],
      "name": "setFinanceProcessor",
      "outputs": [],
      "stateMutability": "nonpayable",
      "type": "function"
    },
    {
      "inputs": [
        {
          "internalType": "address",
          "name": "_loanManagerAddress",
          "type": "address"
        }
      ],
      "name": "setLoanManager",
      "outputs": [],
      "stateMutability": "nonpayable",
      "type": "function"
    },
    {
      "inputs": [],
      "name": "totalEthDeposits",
      "outputs": [
        {
          "internalType": "uint256",
          "name": "",
          "type": "uint256"
        }
      ],
      "stateMutability": "view",
      "type": "function"
    },
    {
      "inputs": [],
      "name": "totalUsdcDeposits",
      "outputs": [
        {
          "internalType": "uint256",
          "name": "",
          "type": "uint256"
        }
      ],
      "stateMutability": "view",
      "type": "function"
    },
    {
      "inputs": [
        {
          "internalType": "address",
          "name": "_to",
          "type": "address"
        }
      ],
      "name": "transferAllUSDC",
      "outputs": [],
      "stateMutability": "nonpayable",
      "type": "function"
    },
    {
      "inputs": [
        {
          "internalType": "address",
          "name": "",
          "type": "address"
        }
      ],
      "name": "usdcBalances",
      "outputs": [
        {
          "internalType": "uint256",
          "name": "",
          "type": "uint256"
        }
      ],
      "stateMutability": "view",
      "type": "function"
    },
    {
      "inputs": [
        {
          "internalType": "address",
          "name": "",
          "type": "address"
        }
      ],
      "name": "usdcInterestAccrued",
      "outputs": [
        {
          "internalType": "uint256",
          "name": "",
          "type": "uint256"
        }
      ],
      "stateMutability": "view",
      "type": "function"
    },
    {
      "inputs": [],
      "name": "usdcToken",
      "outputs": [
        {
          "internalType": "contract IERC20",
          "name": "",
          "type": "address"
        }
      ],
      "stateMutability": "view",
      "type": "function"
    },
    {
      "inputs": [
        {
          "internalType": "address",
          "name": "_borrower",
          "type": "address"
        },
        {
          "internalType": "uint256",
          "name": "_amount",
          "type": "uint256"
        }
      ],
      "name": "withdrawETH",
      "outputs": [],
      "stateMutability": "nonpayable",
      "type": "function"
    },
    {
      "inputs": [
        {
          "internalType": "uint256",
          "name": "_amount",
          "type": "uint256"
        }
      ],
      "name": "withdrawUSDC",
      "outputs": [],
      "stateMutability": "nonpayable",
      "type": "function"
    }
  ],
  "bytecode": "0x6080604052348015600f57600080fd5b5060405161148e38038061148e833981016040819052602c916077565b600180546001600160a01b039384166001600160a01b0319918216179091556000805492909316911617905560a5565b80516001600160a01b0381168114607257600080fd5b919050565b60008060408385031215608957600080fd5b609083605c565b9150609c60208401605c565b90509250929050565b6113da806100b46000396000f3fe6080604052600436106101815760003560e01c8063a74d4772116100d1578063d007c6441161008a578063f1e6d76111610064578063f1e6d761146104e9578063f6326fb31461035c578063f688bcfb146104ff578063fcb4888e1461051f57600080fd5b8063d007c64414610489578063db81f99b146104a9578063de8f1c8a146104c957600080fd5b8063a74d4772146103af578063a99c68c5146103cf578063b3ccbcfe146103fc578063b47bca5c1461041c578063bb9db0c81461043c578063c0c298221461045c57600080fd5b80635772ae701161013e5780636f758140116101185780636f7581401461035c5780637e29b85d146103645780638245cb861461037a5780638b3651ad1461039a57600080fd5b80635772ae70146102c95780635ffa16ef14610306578063680247171461032657600080fd5b806311eac8551461018657806330def696146101c35780633c6170fb146102025780633cfba0e3146102465780634782f779146102735780634d2301cc14610293575b600080fd5b34801561019257600080fd5b506000546101a6906001600160a01b031681565b6040516001600160a01b0390911681526020015b60405180910390f35b3480156101cf57600080fd5b506102006101de366004611105565b600380546001600160a01b0319166001600160a01b0392909216919091179055565b005b34801561020e57600080fd5b5061023861021d366004611105565b6001600160a01b031660009081526006602052604090205490565b6040519081526020016101ba565b34801561025257600080fd5b50610238610261366004611105565b60046020526000908152604090205481565b34801561027f57600080fd5b5061020061028e366004611129565b61053f565b34801561029f57600080fd5b506102386102ae366004611105565b6001600160a01b031660009081526004602052604090205490565b3480156102d557600080fd5b506102006102e4366004611105565b600280546001600160a01b0319166001600160a01b0392909216919091179055565b34801561031257600080fd5b50610200610321366004611129565b61073e565b34801561033257600080fd5b50610238610341366004611105565b6001600160a01b031660009081526005602052604090205490565b61020061076f565b34801561037057600080fd5b5061023860085481565b34801561038657600080fd5b50610200610395366004611129565b6107e3565b3480156103a657600080fd5b5061020061084d565b3480156103bb57600080fd5b506001546101a6906001600160a01b031681565b3480156103db57600080fd5b506102386103ea366004611105565b60056020526000908152604090205481565b34801561040857600080fd5b506002546101a6906001600160a01b031681565b34801561042857600080fd5b50610200610437366004611105565b6108b7565b34801561044857600080fd5b506003546101a6906001600160a01b031681565b34801561046857600080fd5b50610238610477366004611105565b60066020526000908152604090205481565b34801561049557600080fd5b506102006104a4366004611105565b610a3b565b3480156104b557600080fd5b506102006104c4366004611155565b610b1e565b3480156104d557600080fd5b506102006104e4366004611155565b610db6565b3480156104f557600080fd5b5061023860075481565b34801561050b57600080fd5b5061020061051a366004611155565b610e2f565b34801561052b57600080fd5b5061020061053a366004611105565b610ffb565b6001600160a01b0382166000908152600460205260409020548111156105a45760405162461bcd60e51b815260206004820152601560248201527424b739bab33334b1b4b2b73a103130b630b731b29760591b60448201526064015b60405180910390fd5b600254604051636420ec2960e01b81526001600160a01b03848116600483015290911690636420ec2990602401602060405180830381865afa1580156105ee573d6000803e3d6000fd5b505050506040513d601f19601f820116820180604052508101906106129190611183565b61067a5760405162461bcd60e51b815260206004820152603360248201527f4f75747374616e64696e67206c6f616e206d75737420626520726570616964206044820152723132b337b932903bb4ba34323930bbb4b7339760691b606482015260840161059b565b6001600160a01b038216600090815260046020526040812080548392906106a29084906111b4565b9250508190555080600760008282546106bb91906111b4565b90915550506040516001600160a01b0383169082156108fc029083906000818181858888f193505050501580156106f6573d6000803e3d6000fd5b50816001600160a01b03167f8455ae6be5d92f1df1c3c1484388e247a36c7e60d72055ae216dbc258f257d4b8260405161073291815260200190565b60405180910390a25050565b6001600160a01b038216600090815260056020526040812080548392906107669084906111cd565b90915550505050565b336000908152600460205260408120805434929061078e9084906111cd565b9250508190555034600760008282546107a791906111cd565b909155505060405134815233907f66ff7c8f71ccc7c36152a41920d0d3b46ef3034359f76aa1498ed4478c204b5c9060200160405180910390a2565b600354604051634122e5c360e11b81526001600160a01b0384811660048301526024820184905290911690638245cb8690604401600060405180830381600087803b15801561083157600080fd5b505af1158015610845573d6000803e3d6000fd5b505050505050565b600360009054906101000a90046001600160a01b03166001600160a01b0316638b3651ad6040518163ffffffff1660e01b8152600401600060405180830381600087803b15801561089d57600080fd5b505af11580156108b1573d6000803e3d6000fd5b50505050565b600080546040516370a0823160e01b81523060048201526001600160a01b03909116906370a0823190602401602060405180830381865afa158015610900573d6000803e3d6000fd5b505050506040513d601f19601f8201168201806040525081019061092491906111e0565b90506000811161096d5760405162461bcd60e51b81526020600482015260146024820152732737902aa9a221903a37903a3930b739b332b91760611b604482015260640161059b565b60005460405163a9059cbb60e01b81526001600160a01b038481166004830152602482018490529091169063a9059cbb906044016020604051808303816000875af11580156109c0573d6000803e3d6000fd5b505050506040513d601f19601f820116820180604052508101906109e49190611183565b610a005760405162461bcd60e51b815260040161059b906111f9565b816001600160a01b03167fdf44238f7ebaaa785d34d583d1f33c08741dda2b7ebdfc83bfd1a3d17d46d5378260405161073291815260200190565b600354604051633c6170fb60e01b81526001600160a01b0383811660048301526000921690633c6170fb90602401602060405180830381865afa158015610a86573d6000803e3d6000fd5b505050506040513d601f19601f82011682018060405250810190610aaa91906111e0565b90508015610b1a576001600160a01b03821660009081526005602052604081208054839290610ada9084906111cd565b90915550506040518181526001600160a01b038316907f16cbc685358ca7d4e6b273dcdf2cb5d18c80b950aa2319b519756cd016233a6c90602001610732565b5050565b33600090815260056020526040902054811115610b755760405162461bcd60e51b815260206004820152601560248201527424b739bab33334b1b4b2b73a103130b630b731b29760591b604482015260640161059b565b600080546040516370a0823160e01b81523060048201526001600160a01b03909116906370a0823190602401602060405180830381865afa158015610bbe573d6000803e3d6000fd5b505050506040513d601f19601f82011682018060405250810190610be291906111e0565b905081811015610c405760405162461bcd60e51b8152602060048201526024808201527f496e73756666696369656e742062616c616e636520696e2046756e64696e675060448201526337b7b61760e11b606482015260840161059b565b3360009081526005602052604081208054849290610c5f9084906111b4565b925050819055508160086000828254610c7891906111b4565b909155505060005460405163095ea7b360e01b8152336004820152602481018490526001600160a01b039091169063095ea7b3906044016020604051808303816000875af1158015610cce573d6000803e3d6000fd5b505050506040513d601f19601f82011682018060405250810190610cf29190611183565b5060005460405163a9059cbb60e01b8152336004820152602481018490526001600160a01b039091169063a9059cbb906044016020604051808303816000875af1158015610d44573d6000803e3d6000fd5b505050506040513d601f19601f82011682018060405250810190610d689190611183565b610d845760405162461bcd60e51b815260040161059b906111f9565b60405182815233907f0d1589f631deb2542273b007140b132a18d48a4303d103fe64d353db07e01b5790602001610732565b60005460025460405163095ea7b360e01b81526001600160a01b0391821660048201526024810184905291169063095ea7b3906044016020604051808303816000875af1158015610e0b573d6000803e3d6000fd5b505050506040513d601f19601f82011682018060405250810190610b1a9190611183565b600054604051636eb1769f60e11b815233600482015230602482015282916001600160a01b03169063dd62ed3e90604401602060405180830381865afa158015610e7d573d6000803e3d6000fd5b505050506040513d601f19601f82011682018060405250810190610ea191906111e0565b1015610eef5760405162461bcd60e51b815260206004820152601960248201527f416c6c6f77616e6365206e6f742073756666696369656e742e00000000000000604482015260640161059b565b6000546040516323b872dd60e01b8152336004820152306024820152604481018390526001600160a01b03909116906323b872dd906064016020604051808303816000875af1158015610f46573d6000803e3d6000fd5b505050506040513d601f19601f82011682018060405250810190610f6a9190611183565b610f865760405162461bcd60e51b815260040161059b906111f9565b3360009081526005602052604081208054839290610fa59084906111cd565b925050819055508060086000828254610fbe91906111cd565b909155505060405181815233907f36e229bdaedfa85d503535ae31c3ac9e40d88f1ab4fa53870ef2da82df48e9909060200160405180910390a250565b60015460405163156d12cb60e11b81526001600160a01b03838116600483015290911690632ada259690602401600060405180830381865afa158015611045573d6000803e3d6000fd5b505050506040513d6000823e601f3d908101601f1916820160405261106d919081019061129e565b604001516110b65760405162461bcd60e51b815260206004820152601660248201527526b2b6b132b9103737ba103932b3b4b9ba32b932b21760511b604482015260640161059b565b6040516001600160a01b038216907f92fabfa210df88d92c2f5a07ddd43a985b208d8b19b7a78ba1284aa4b287d86290600090a250565b6001600160a01b038116811461110257600080fd5b50565b60006020828403121561111757600080fd5b8135611122816110ed565b9392505050565b6000806040838503121561113c57600080fd5b8235611147816110ed565b946020939093013593505050565b60006020828403121561116757600080fd5b5035919050565b8051801515811461117e57600080fd5b919050565b60006020828403121561119557600080fd5b6111228261116e565b634e487b7160e01b600052601160045260246000fd5b818103818111156111c7576111c761119e565b92915050565b808201808211156111c7576111c761119e565b6000602082840312156111f257600080fd5b5051919050565b60208082526010908201526f2a3930b739b332b9103330b4b632b21760811b604082015260600190565b634e487b7160e01b600052604160045260246000fd5b6040516060810167ffffffffffffffff8111828210171561125c5761125c611223565b60405290565b604051601f8201601f1916810167ffffffffffffffff8111828210171561128b5761128b611223565b604052919050565b805161117e816110ed565b6000602082840312156112b057600080fd5b815167ffffffffffffffff8111156112c757600080fd5b8201606081850312156112d957600080fd5b6112e1611239565b815167ffffffffffffffff8111156112f857600080fd5b8201601f8101861361130957600080fd5b805167ffffffffffffffff81111561132357611323611223565b611336601f8201601f1916602001611262565b81815287602083850101111561134b57600080fd5b60005b8281101561136a5760208185018101518383018201520161134e565b5060006020838301015280845250505061138660208301611293565b60208201526113976040830161116e565b604082015294935050505056fea2646970667358221220c89aaf91d4a0b58396b863c05aa07b05d9e06b94c49220a27b22dd149aeddc8764736f6c634300081a0033",
  "linkReferences": {},
  "deployedLinkReferences": {}
}