{
  "_format": "hh-sol-artifact-1",
  "contractName": "FundingPool",
  "sourceName": "contracts/FundingPool.sol",
  "abi": [
    {
      "inputs": [
        {
          "internalType": "address",
          "name": "_memberRegistryAddress",
          "type": "address"
        },
        {
          "internalType": "address",
          "name": "_usdcAddress",
          "type": "address"
        }
      ],
      "stateMutability": "nonpayable",
      "type": "constructor"
    },
    {
      "anonymous": false,
      "inputs": [
        {
          "indexed": true,
          "internalType": "address",
          "name": "borrower",
          "type": "address"
        },
        {
          "indexed": false,
          "internalType": "uint256",
          "name": "collateralAmount",
          "type": "uint256"
        }
      ],
      "name": "CollateralLiquidated",
      "type": "event"
    },
    {
      "anonymous": false,
      "inputs": [
        {
          "indexed": true,
          "internalType": "address",
          "name": "member",
          "type": "address"
        },
        {
          "indexed": false,
          "internalType": "uint256",
          "name": "amount",
          "type": "uint256"
        }
      ],
      "name": "EthDeposited",
      "type": "event"
    },
    {
      "anonymous": false,
      "inputs": [
        {
          "indexed": true,
          "internalType": "address",
          "name": "member",
          "type": "address"
        },
        {
          "indexed": false,
          "internalType": "uint256",
          "name": "amount",
          "type": "uint256"
        }
      ],
      "name": "EthWithdrawn",
      "type": "event"
    },
    {
      "anonymous": false,
      "inputs": [
        {
          "indexed": true,
          "internalType": "address",
          "name": "member",
          "type": "address"
        },
        {
          "indexed": false,
          "internalType": "uint256",
          "name": "amount",
          "type": "uint256"
        }
      ],
      "name": "InterestPaid",
      "type": "event"
    },
    {
      "anonymous": false,
      "inputs": [
        {
          "indexed": true,
          "internalType": "address",
          "name": "member",
          "type": "address"
        }
      ],
      "name": "MemberRegistered",
      "type": "event"
    },
    {
      "anonymous": false,
      "inputs": [
        {
          "indexed": true,
          "internalType": "address",
          "name": "member",
          "type": "address"
        },
        {
          "indexed": false,
          "internalType": "uint256",
          "name": "amount",
          "type": "uint256"
        }
      ],
      "name": "UsdcDeposited",
      "type": "event"
    },
    {
      "anonymous": false,
      "inputs": [
        {
          "indexed": true,
          "internalType": "address",
          "name": "to",
          "type": "address"
        },
        {
          "indexed": false,
          "internalType": "uint256",
          "name": "amount",
          "type": "uint256"
        }
      ],
      "name": "UsdcTransferred",
      "type": "event"
    },
    {
      "anonymous": false,
      "inputs": [
        {
          "indexed": true,
          "internalType": "address",
          "name": "member",
          "type": "address"
        },
        {
          "indexed": false,
          "internalType": "uint256",
          "name": "amount",
          "type": "uint256"
        }
      ],
      "name": "UsdcWithdrawn",
      "type": "event"
    },
    {
      "inputs": [
        {
          "internalType": "address",
          "name": "_member",
          "type": "address"
        },
        {
          "internalType": "uint256",
          "name": "_amount",
          "type": "uint256"
        }
      ],
      "name": "addUSDCBalance",
      "outputs": [],
      "stateMutability": "nonpayable",
      "type": "function"
    },
    {
      "inputs": [
        {
          "internalType": "uint256",
          "name": "amount",
          "type": "uint256"
        }
      ],
      "name": "approveLoanManager",
      "outputs": [],
      "stateMutability": "nonpayable",
      "type": "function"
    },
    {
      "inputs": [],
      "name": "depositCollateral",
      "outputs": [],
      "stateMutability": "payable",
      "type": "function"
    },
    {
      "inputs": [],
      "name": "depositETH",
      "outputs": [],
      "stateMutability": "payable",
      "type": "function"
    },
    {
      "inputs": [
        {
          "internalType": "uint256",
          "name": "_amount",
          "type": "uint256"
        }
      ],
      "name": "depositUSDC",
      "outputs": [],
      "stateMutability": "nonpayable",
      "type": "function"
    },
    {
      "inputs": [],
      "name": "distributeInterest",
      "outputs": [],
      "stateMutability": "nonpayable",
      "type": "function"
    },
    {
      "inputs": [
        {
          "internalType": "address",
          "name": "",
          "type": "address"
        }
      ],
      "name": "ethBalances",
      "outputs": [
        {
          "internalType": "uint256",
          "name": "",
          "type": "uint256"
        }
      ],
      "stateMutability": "view",
      "type": "function"
    },
    {
      "inputs": [],
      "name": "financeProcessor",
      "outputs": [
        {
          "internalType": "contract FinanceProcessor",
          "name": "",
          "type": "address"
        }
      ],
      "stateMutability": "view",
      "type": "function"
    },
    {
      "inputs": [
        {
          "internalType": "address",
          "name": "_memberAddress",
          "type": "address"
        }
      ],
      "name": "getEthBalance",
      "outputs": [
        {
          "internalType": "uint256",
          "name": "",
          "type": "uint256"
        }
      ],
      "stateMutability": "view",
      "type": "function"
    },
    {
      "inputs": [
        {
          "internalType": "address",
          "name": "_memberAddress",
          "type": "address"
        }
      ],
      "name": "getUSDCBalance",
      "outputs": [
        {
          "internalType": "uint256",
          "name": "",
          "type": "uint256"
        }
      ],
      "stateMutability": "view",
      "type": "function"
    },
    {
      "inputs": [
        {
          "internalType": "address",
          "name": "_member",
          "type": "address"
        }
      ],
      "name": "getUSDCInterestAccrued",
      "outputs": [
        {
          "internalType": "uint256",
          "name": "",
          "type": "uint256"
        }
      ],
      "stateMutability": "view",
      "type": "function"
    },
    {
      "inputs": [
        {
          "internalType": "address",
          "name": "_borrower",
          "type": "address"
        },
        {
          "internalType": "uint256",
          "name": "_loanIndex",
          "type": "uint256"
        }
      ],
      "name": "liquidateCollateral",
      "outputs": [],
      "stateMutability": "nonpayable",
      "type": "function"
    },
    {
      "inputs": [],
      "name": "loanManager",
      "outputs": [
        {
          "internalType": "contract LoanManager",
          "name": "",
          "type": "address"
        }
      ],
      "stateMutability": "view",
      "type": "function"
    },
    {
      "inputs": [],
      "name": "memberRegistry",
      "outputs": [
        {
          "internalType": "contract MemberRegistry",
          "name": "",
          "type": "address"
        }
      ],
      "stateMutability": "view",
      "type": "function"
    },
    {
      "inputs": [
        {
          "internalType": "address",
          "name": "_member",
          "type": "address"
        }
      ],
      "name": "payInterest",
      "outputs": [],
      "stateMutability": "nonpayable",
      "type": "function"
    },
    {
      "inputs": [
        {
          "internalType": "address",
          "name": "_member",
          "type": "address"
        }
      ],
      "name": "registerMember",
      "outputs": [],
      "stateMutability": "nonpayable",
      "type": "function"
    },
    {
      "inputs": [
        {
          "internalType": "address",
          "name": "_financeProcessorAddress",
          "type": "address"
        }
      ],
      "name": "setFinanceProcessor",
      "outputs": [],
      "stateMutability": "nonpayable",
      "type": "function"
    },
    {
      "inputs": [
        {
          "internalType": "address",
          "name": "_loanManagerAddress",
          "type": "address"
        }
      ],
      "name": "setLoanManager",
      "outputs": [],
      "stateMutability": "nonpayable",
      "type": "function"
    },
    {
      "inputs": [],
      "name": "totalEthDeposits",
      "outputs": [
        {
          "internalType": "uint256",
          "name": "",
          "type": "uint256"
        }
      ],
      "stateMutability": "view",
      "type": "function"
    },
    {
      "inputs": [],
      "name": "totalUsdcDeposits",
      "outputs": [
        {
          "internalType": "uint256",
          "name": "",
          "type": "uint256"
        }
      ],
      "stateMutability": "view",
      "type": "function"
    },
    {
      "inputs": [
        {
          "internalType": "address",
          "name": "_to",
          "type": "address"
        }
      ],
      "name": "transferAllUSDC",
      "outputs": [],
      "stateMutability": "nonpayable",
      "type": "function"
    },
    {
      "inputs": [
        {
          "internalType": "address",
          "name": "",
          "type": "address"
        }
      ],
      "name": "usdcBalances",
      "outputs": [
        {
          "internalType": "uint256",
          "name": "",
          "type": "uint256"
        }
      ],
      "stateMutability": "view",
      "type": "function"
    },
    {
      "inputs": [
        {
          "internalType": "address",
          "name": "",
          "type": "address"
        }
      ],
      "name": "usdcInterestAccrued",
      "outputs": [
        {
          "internalType": "uint256",
          "name": "",
          "type": "uint256"
        }
      ],
      "stateMutability": "view",
      "type": "function"
    },
    {
      "inputs": [],
      "name": "usdcToken",
      "outputs": [
        {
          "internalType": "contract IERC20",
          "name": "",
          "type": "address"
        }
      ],
      "stateMutability": "view",
      "type": "function"
    },
    {
      "inputs": [
        {
          "internalType": "uint256",
          "name": "_amount",
          "type": "uint256"
        }
      ],
      "name": "withdrawETH",
      "outputs": [],
      "stateMutability": "nonpayable",
      "type": "function"
    },
    {
      "inputs": [
        {
          "internalType": "uint256",
          "name": "_amount",
          "type": "uint256"
        }
      ],
      "name": "withdrawUSDC",
      "outputs": [],
      "stateMutability": "nonpayable",
      "type": "function"
    }
  ],
  "bytecode": "0x6080604052348015600f57600080fd5b50604051611328380380611328833981016040819052602c916077565b600180546001600160a01b039384166001600160a01b0319918216179091556000805492909316911617905560a5565b80516001600160a01b0381168114607257600080fd5b919050565b60008060408385031215608957600080fd5b609083605c565b9150609c60208401605c565b90509250929050565b611274806100b46000396000f3fe6080604052600436106101815760003560e01c8063a99c68c5116100d1578063db81f99b1161008a578063f1e6d76111610064578063f1e6d761146104e9578063f6326fb31461033c578063f688bcfb146104ff578063fcb4888e1461051f57600080fd5b8063db81f99b14610489578063de8f1c8a146104a9578063f14210a6146104c957600080fd5b8063a99c68c5146103af578063b3ccbcfe146103dc578063b47bca5c146103fc578063bb9db0c81461041c578063c0c298221461043c578063d007c6441461046957600080fd5b80635ffa16ef1161013e5780637e29b85d116101185780637e29b85d146103445780638245cb861461035a5780638b3651ad1461037a578063a74d47721461038f57600080fd5b80635ffa16ef146102e657806368024717146103065780636f7581401461033c57600080fd5b806311eac8551461018657806330def696146101c35780633c6170fb146102025780633cfba0e3146102465780634d2301cc146102735780635772ae70146102a9575b600080fd5b34801561019257600080fd5b506000546101a6906001600160a01b031681565b6040516001600160a01b0390911681526020015b60405180910390f35b3480156101cf57600080fd5b506102006101de366004610f9f565b600380546001600160a01b0319166001600160a01b0392909216919091179055565b005b34801561020e57600080fd5b5061023861021d366004610f9f565b6001600160a01b031660009081526006602052604090205490565b6040519081526020016101ba565b34801561025257600080fd5b50610238610261366004610f9f565b60046020526000908152604090205481565b34801561027f57600080fd5b5061023861028e366004610f9f565b6001600160a01b031660009081526004602052604090205490565b3480156102b557600080fd5b506102006102c4366004610f9f565b600280546001600160a01b0319166001600160a01b0392909216919091179055565b3480156102f257600080fd5b50610200610301366004610fc3565b61053f565b34801561031257600080fd5b50610238610321366004610f9f565b6001600160a01b031660009081526005602052604090205490565b610200610570565b34801561035057600080fd5b5061023860085481565b34801561036657600080fd5b50610200610375366004610fc3565b6105e4565b34801561038657600080fd5b5061020061064e565b34801561039b57600080fd5b506001546101a6906001600160a01b031681565b3480156103bb57600080fd5b506102386103ca366004610f9f565b60056020526000908152604090205481565b3480156103e857600080fd5b506002546101a6906001600160a01b031681565b34801561040857600080fd5b50610200610417366004610f9f565b6106b8565b34801561042857600080fd5b506003546101a6906001600160a01b031681565b34801561044857600080fd5b50610238610457366004610f9f565b60066020526000908152604090205481565b34801561047557600080fd5b50610200610484366004610f9f565b61084d565b34801561049557600080fd5b506102006104a4366004610fef565b610930565b3480156104b557600080fd5b506102006104c4366004610fef565b610a8e565b3480156104d557600080fd5b506102006104e4366004610fef565b610b07565b3480156104f557600080fd5b5061023860075481565b34801561050b57600080fd5b5061020061051a366004610fef565b610ccf565b34801561052b57600080fd5b5061020061053a366004610f9f565b610e95565b6001600160a01b0382166000908152600560205260408120805483929061056790849061101e565b90915550505050565b336000908152600460205260408120805434929061058f90849061101e565b9250508190555034600760008282546105a8919061101e565b909155505060405134815233907f66ff7c8f71ccc7c36152a41920d0d3b46ef3034359f76aa1498ed4478c204b5c9060200160405180910390a2565b600354604051634122e5c360e11b81526001600160a01b0384811660048301526024820184905290911690638245cb8690604401600060405180830381600087803b15801561063257600080fd5b505af1158015610646573d6000803e3d6000fd5b505050505050565b600360009054906101000a90046001600160a01b03166001600160a01b0316638b3651ad6040518163ffffffff1660e01b8152600401600060405180830381600087803b15801561069e57600080fd5b505af11580156106b2573d6000803e3d6000fd5b50505050565b600080546040516370a0823160e01b81523060048201526001600160a01b03909116906370a0823190602401602060405180830381865afa158015610701573d6000803e3d6000fd5b505050506040513d601f19601f820116820180604052508101906107259190611037565b9050600081116107735760405162461bcd60e51b81526020600482015260146024820152732737902aa9a221903a37903a3930b739b332b91760611b60448201526064015b60405180910390fd5b60005460405163a9059cbb60e01b81526001600160a01b038481166004830152602482018490529091169063a9059cbb906044016020604051808303816000875af11580156107c6573d6000803e3d6000fd5b505050506040513d601f19601f820116820180604052508101906107ea9190611065565b6108065760405162461bcd60e51b815260040161076a90611080565b816001600160a01b03167fdf44238f7ebaaa785d34d583d1f33c08741dda2b7ebdfc83bfd1a3d17d46d5378260405161084191815260200190565b60405180910390a25050565b600354604051633c6170fb60e01b81526001600160a01b0383811660048301526000921690633c6170fb90602401602060405180830381865afa158015610898573d6000803e3d6000fd5b505050506040513d601f19601f820116820180604052508101906108bc9190611037565b9050801561092c576001600160a01b038216600090815260056020526040812080548392906108ec90849061101e565b90915550506040518181526001600160a01b038316907f16cbc685358ca7d4e6b273dcdf2cb5d18c80b950aa2319b519756cd016233a6c90602001610841565b5050565b336000908152600560205260409020548111156109875760405162461bcd60e51b815260206004820152601560248201527424b739bab33334b1b4b2b73a103130b630b731b29760591b604482015260640161076a565b33600090815260056020526040812080548392906109a69084906110aa565b9250508190555080600860008282546109bf91906110aa565b909155505060005460405163a9059cbb60e01b8152336004820152602481018390526001600160a01b039091169063a9059cbb906044016020604051808303816000875af1158015610a15573d6000803e3d6000fd5b505050506040513d601f19601f82011682018060405250810190610a399190611065565b610a555760405162461bcd60e51b815260040161076a90611080565b60405181815233907f0d1589f631deb2542273b007140b132a18d48a4303d103fe64d353db07e01b57906020015b60405180910390a250565b60005460025460405163095ea7b360e01b81526001600160a01b0391821660048201526024810184905291169063095ea7b3906044016020604051808303816000875af1158015610ae3573d6000803e3d6000fd5b505050506040513d601f19601f8201168201806040525081019061092c9190611065565b33600090815260046020526040902054811115610b5e5760405162461bcd60e51b815260206004820152601560248201527424b739bab33334b1b4b2b73a103130b630b731b29760591b604482015260640161076a565b600254604051636420ec2960e01b81523360048201526001600160a01b0390911690636420ec2990602401602060405180830381865afa158015610ba6573d6000803e3d6000fd5b505050506040513d601f19601f82011682018060405250810190610bca9190611065565b610c325760405162461bcd60e51b815260206004820152603360248201527f4f75747374616e64696e67206c6f616e206d75737420626520726570616964206044820152723132b337b932903bb4ba34323930bbb4b7339760691b606482015260840161076a565b3360009081526004602052604081208054839290610c519084906110aa565b925050819055508060076000828254610c6a91906110aa565b9091555050604051339082156108fc029083906000818181858888f19350505050158015610c9c573d6000803e3d6000fd5b5060405181815233907f8455ae6be5d92f1df1c3c1484388e247a36c7e60d72055ae216dbc258f257d4b90602001610a83565b600054604051636eb1769f60e11b815233600482015230602482015282916001600160a01b03169063dd62ed3e90604401602060405180830381865afa158015610d1d573d6000803e3d6000fd5b505050506040513d601f19601f82011682018060405250810190610d419190611037565b1015610d8f5760405162461bcd60e51b815260206004820152601960248201527f416c6c6f77616e6365206e6f742073756666696369656e742e00000000000000604482015260640161076a565b6000546040516323b872dd60e01b8152336004820152306024820152604481018390526001600160a01b03909116906323b872dd906064016020604051808303816000875af1158015610de6573d6000803e3d6000fd5b505050506040513d601f19601f82011682018060405250810190610e0a9190611065565b610e265760405162461bcd60e51b815260040161076a90611080565b3360009081526005602052604081208054839290610e4590849061101e565b925050819055508060086000828254610e5e919061101e565b909155505060405181815233907f36e229bdaedfa85d503535ae31c3ac9e40d88f1ab4fa53870ef2da82df48e99090602001610a83565b60015460405163156d12cb60e11b81526001600160a01b03838116600483015290911690632ada259690602401600060405180830381865afa158015610edf573d6000803e3d6000fd5b505050506040513d6000823e601f3d908101601f19168201604052610f079190810190611138565b60400151610f505760405162461bcd60e51b815260206004820152601660248201527526b2b6b132b9103737ba103932b3b4b9ba32b932b21760511b604482015260640161076a565b6040516001600160a01b038216907f92fabfa210df88d92c2f5a07ddd43a985b208d8b19b7a78ba1284aa4b287d86290600090a250565b6001600160a01b0381168114610f9c57600080fd5b50565b600060208284031215610fb157600080fd5b8135610fbc81610f87565b9392505050565b60008060408385031215610fd657600080fd5b8235610fe181610f87565b946020939093013593505050565b60006020828403121561100157600080fd5b5035919050565b634e487b7160e01b600052601160045260246000fd5b8082018082111561103157611031611008565b92915050565b60006020828403121561104957600080fd5b5051919050565b8051801515811461106057600080fd5b919050565b60006020828403121561107757600080fd5b610fbc82611050565b60208082526010908201526f2a3930b739b332b9103330b4b632b21760811b604082015260600190565b8181038181111561103157611031611008565b634e487b7160e01b600052604160045260246000fd5b6040516060810167ffffffffffffffff811182821017156110f6576110f66110bd565b60405290565b604051601f8201601f1916810167ffffffffffffffff81118282101715611125576111256110bd565b604052919050565b805161106081610f87565b60006020828403121561114a57600080fd5b815167ffffffffffffffff81111561116157600080fd5b82016060818503121561117357600080fd5b61117b6110d3565b815167ffffffffffffffff81111561119257600080fd5b8201601f810186136111a357600080fd5b805167ffffffffffffffff8111156111bd576111bd6110bd565b6111d0601f8201601f19166020016110fc565b8181528760208385010111156111e557600080fd5b60005b82811015611204576020818501810151838301820152016111e8565b506000602083830101528084525050506112206020830161112d565b602082015261123160408301611050565b604082015294935050505056fea2646970667358221220d175b997c967bb7455f7682c2ef7b798a6a696213d1a354192ce9fa6ecd12dc364736f6c634300081a0033",
  "linkReferences": {},
  "deployedLinkReferences": {}
}