{
  "_format": "hh-sol-artifact-1",
  "contractName": "FundingPool",
  "sourceName": "contracts/FundingPool.sol",
  "abi": [
    {
      "inputs": [
        {
          "internalType": "address",
          "name": "_memberRegistryAddress",
          "type": "address"
        },
        {
          "internalType": "address",
          "name": "_usdcAddress",
          "type": "address"
        }
      ],
      "stateMutability": "nonpayable",
      "type": "constructor"
    },
    {
      "anonymous": false,
      "inputs": [
        {
          "indexed": true,
          "internalType": "address",
          "name": "borrower",
          "type": "address"
        },
        {
          "indexed": false,
          "internalType": "uint256",
          "name": "collateralAmount",
          "type": "uint256"
        }
      ],
      "name": "CollateralLiquidated",
      "type": "event"
    },
    {
      "anonymous": false,
      "inputs": [
        {
          "indexed": true,
          "internalType": "address",
          "name": "member",
          "type": "address"
        },
        {
          "indexed": false,
          "internalType": "uint256",
          "name": "amount",
          "type": "uint256"
        }
      ],
      "name": "EthDeposited",
      "type": "event"
    },
    {
      "anonymous": false,
      "inputs": [
        {
          "indexed": true,
          "internalType": "address",
          "name": "member",
          "type": "address"
        },
        {
          "indexed": false,
          "internalType": "uint256",
          "name": "amount",
          "type": "uint256"
        }
      ],
      "name": "EthWithdrawn",
      "type": "event"
    },
    {
      "anonymous": false,
      "inputs": [
        {
          "indexed": true,
          "internalType": "address",
          "name": "member",
          "type": "address"
        },
        {
          "indexed": false,
          "internalType": "uint256",
          "name": "amount",
          "type": "uint256"
        }
      ],
      "name": "InterestPaid",
      "type": "event"
    },
    {
      "anonymous": false,
      "inputs": [
        {
          "indexed": true,
          "internalType": "address",
          "name": "member",
          "type": "address"
        }
      ],
      "name": "MemberRegistered",
      "type": "event"
    },
    {
      "anonymous": false,
      "inputs": [
        {
          "indexed": true,
          "internalType": "address",
          "name": "member",
          "type": "address"
        },
        {
          "indexed": false,
          "internalType": "uint256",
          "name": "amount",
          "type": "uint256"
        }
      ],
      "name": "UsdcDeposited",
      "type": "event"
    },
    {
      "anonymous": false,
      "inputs": [
        {
          "indexed": true,
          "internalType": "address",
          "name": "to",
          "type": "address"
        },
        {
          "indexed": false,
          "internalType": "uint256",
          "name": "amount",
          "type": "uint256"
        }
      ],
      "name": "UsdcTransferred",
      "type": "event"
    },
    {
      "anonymous": false,
      "inputs": [
        {
          "indexed": true,
          "internalType": "address",
          "name": "member",
          "type": "address"
        },
        {
          "indexed": false,
          "internalType": "uint256",
          "name": "amount",
          "type": "uint256"
        }
      ],
      "name": "UsdcWithdrawn",
      "type": "event"
    },
    {
      "inputs": [
        {
          "internalType": "address",
          "name": "_member",
          "type": "address"
        },
        {
          "internalType": "uint256",
          "name": "_amount",
          "type": "uint256"
        }
      ],
      "name": "addUSDCBalance",
      "outputs": [],
      "stateMutability": "nonpayable",
      "type": "function"
    },
    {
      "inputs": [
        {
          "internalType": "uint256",
          "name": "amount",
          "type": "uint256"
        }
      ],
      "name": "approveLoanManager",
      "outputs": [],
      "stateMutability": "nonpayable",
      "type": "function"
    },
    {
      "inputs": [
        {
          "internalType": "uint256",
          "name": "amount",
          "type": "uint256"
        }
      ],
      "name": "decreaseTotalUsdcDeposits",
      "outputs": [],
      "stateMutability": "nonpayable",
      "type": "function"
    },
    {
      "inputs": [
        {
          "internalType": "address",
          "name": "borrower",
          "type": "address"
        }
      ],
      "name": "depositCollateral",
      "outputs": [],
      "stateMutability": "payable",
      "type": "function"
    },
    {
      "inputs": [],
      "name": "depositETH",
      "outputs": [],
      "stateMutability": "payable",
      "type": "function"
    },
    {
      "inputs": [
        {
          "internalType": "uint256",
          "name": "_amount",
          "type": "uint256"
        }
      ],
      "name": "depositUSDC",
      "outputs": [],
      "stateMutability": "nonpayable",
      "type": "function"
    },
    {
      "inputs": [],
      "name": "distributeInterest",
      "outputs": [],
      "stateMutability": "nonpayable",
      "type": "function"
    },
    {
      "inputs": [
        {
          "internalType": "address",
          "name": "",
          "type": "address"
        }
      ],
      "name": "ethBalances",
      "outputs": [
        {
          "internalType": "uint256",
          "name": "",
          "type": "uint256"
        }
      ],
      "stateMutability": "view",
      "type": "function"
    },
    {
      "inputs": [],
      "name": "financeProcessor",
      "outputs": [
        {
          "internalType": "contract FinanceProcessor",
          "name": "",
          "type": "address"
        }
      ],
      "stateMutability": "view",
      "type": "function"
    },
    {
      "inputs": [
        {
          "internalType": "address",
          "name": "_memberAddress",
          "type": "address"
        }
      ],
      "name": "getEthBalance",
      "outputs": [
        {
          "internalType": "uint256",
          "name": "",
          "type": "uint256"
        }
      ],
      "stateMutability": "view",
      "type": "function"
    },
    {
      "inputs": [
        {
          "internalType": "address",
          "name": "_memberAddress",
          "type": "address"
        }
      ],
      "name": "getUSDCBalance",
      "outputs": [
        {
          "internalType": "uint256",
          "name": "",
          "type": "uint256"
        }
      ],
      "stateMutability": "view",
      "type": "function"
    },
    {
      "inputs": [
        {
          "internalType": "address",
          "name": "_member",
          "type": "address"
        }
      ],
      "name": "getUSDCInterestAccrued",
      "outputs": [
        {
          "internalType": "uint256",
          "name": "",
          "type": "uint256"
        }
      ],
      "stateMutability": "view",
      "type": "function"
    },
    {
      "inputs": [
        {
          "internalType": "uint256",
          "name": "amount",
          "type": "uint256"
        }
      ],
      "name": "increaseTotalUsdcDeposits",
      "outputs": [],
      "stateMutability": "nonpayable",
      "type": "function"
    },
    {
      "inputs": [
        {
          "internalType": "address",
          "name": "_borrower",
          "type": "address"
        },
        {
          "internalType": "uint256",
          "name": "_loanIndex",
          "type": "uint256"
        }
      ],
      "name": "liquidateCollateral",
      "outputs": [],
      "stateMutability": "nonpayable",
      "type": "function"
    },
    {
      "inputs": [],
      "name": "loanManager",
      "outputs": [
        {
          "internalType": "contract LoanManager",
          "name": "",
          "type": "address"
        }
      ],
      "stateMutability": "view",
      "type": "function"
    },
    {
      "inputs": [],
      "name": "memberRegistry",
      "outputs": [
        {
          "internalType": "contract MemberRegistry",
          "name": "",
          "type": "address"
        }
      ],
      "stateMutability": "view",
      "type": "function"
    },
    {
      "inputs": [
        {
          "internalType": "address",
          "name": "_member",
          "type": "address"
        }
      ],
      "name": "payInterest",
      "outputs": [],
      "stateMutability": "nonpayable",
      "type": "function"
    },
    {
      "inputs": [
        {
          "internalType": "address",
          "name": "_member",
          "type": "address"
        }
      ],
      "name": "registerMember",
      "outputs": [],
      "stateMutability": "nonpayable",
      "type": "function"
    },
    {
      "inputs": [
        {
          "internalType": "address",
          "name": "_financeProcessorAddress",
          "type": "address"
        }
      ],
      "name": "setFinanceProcessor",
      "outputs": [],
      "stateMutability": "nonpayable",
      "type": "function"
    },
    {
      "inputs": [
        {
          "internalType": "address",
          "name": "_loanManagerAddress",
          "type": "address"
        }
      ],
      "name": "setLoanManager",
      "outputs": [],
      "stateMutability": "nonpayable",
      "type": "function"
    },
    {
      "inputs": [],
      "name": "totalEthDeposits",
      "outputs": [
        {
          "internalType": "uint256",
          "name": "",
          "type": "uint256"
        }
      ],
      "stateMutability": "view",
      "type": "function"
    },
    {
      "inputs": [],
      "name": "totalUsdcDeposits",
      "outputs": [
        {
          "internalType": "uint256",
          "name": "",
          "type": "uint256"
        }
      ],
      "stateMutability": "view",
      "type": "function"
    },
    {
      "inputs": [
        {
          "internalType": "address",
          "name": "_to",
          "type": "address"
        }
      ],
      "name": "transferAllUSDC",
      "outputs": [],
      "stateMutability": "nonpayable",
      "type": "function"
    },
    {
      "inputs": [
        {
          "internalType": "address",
          "name": "",
          "type": "address"
        }
      ],
      "name": "usdcBalances",
      "outputs": [
        {
          "internalType": "uint256",
          "name": "",
          "type": "uint256"
        }
      ],
      "stateMutability": "view",
      "type": "function"
    },
    {
      "inputs": [
        {
          "internalType": "address",
          "name": "",
          "type": "address"
        }
      ],
      "name": "usdcInterestAccrued",
      "outputs": [
        {
          "internalType": "uint256",
          "name": "",
          "type": "uint256"
        }
      ],
      "stateMutability": "view",
      "type": "function"
    },
    {
      "inputs": [],
      "name": "usdcToken",
      "outputs": [
        {
          "internalType": "contract IERC20",
          "name": "",
          "type": "address"
        }
      ],
      "stateMutability": "view",
      "type": "function"
    },
    {
      "inputs": [
        {
          "internalType": "address",
          "name": "_borrower",
          "type": "address"
        },
        {
          "internalType": "uint256",
          "name": "_amount",
          "type": "uint256"
        }
      ],
      "name": "withdrawETH",
      "outputs": [],
      "stateMutability": "nonpayable",
      "type": "function"
    },
    {
      "inputs": [
        {
          "internalType": "uint256",
          "name": "_amount",
          "type": "uint256"
        }
      ],
      "name": "withdrawUSDC",
      "outputs": [],
      "stateMutability": "nonpayable",
      "type": "function"
    }
  ],
  "bytecode": "0x6080604052348015600f57600080fd5b5060405161160e38038061160e833981016040819052602c916077565b600180546001600160a01b039384166001600160a01b0319918216179091556000805492909316911617905560a5565b80516001600160a01b0381168114607257600080fd5b919050565b60008060408385031215608957600080fd5b609083605c565b9150609c60208401605c565b90509250929050565b61155a806100b46000396000f3fe6080604052600436106101b75760003560e01c8063a99c68c5116100ec578063db81f99b1161008a578063f1e6d76111610064578063f1e6d7611461056a578063f6326fb314610580578063f688bcfb14610588578063fcb4888e146105a857600080fd5b8063db81f99b1461050a578063de8f1c8a1461052a578063efc850261461054a57600080fd5b8063bb9db0c8116100c6578063bb9db0c81461047d578063c0c298221461049d578063c78848e3146104ca578063d007c644146104ea57600080fd5b8063a99c68c514610410578063b3ccbcfe1461043d578063b47bca5c1461045d57600080fd5b80635ffa16ef116101595780638245cb86116101335780638245cb86146103a85780638b3651ad146103c857806397d475d7146103dd578063a74d4772146103f057600080fd5b80635ffa16ef1461033c578063680247171461035c5780637e29b85d1461039257600080fd5b80633cfba0e3116101955780633cfba0e31461027c5780634782f779146102a95780634d2301cc146102c95780635772ae70146102ff57600080fd5b806311eac855146101bc57806330def696146101f95780633c6170fb14610238575b600080fd5b3480156101c857600080fd5b506000546101dc906001600160a01b031681565b6040516001600160a01b0390911681526020015b60405180910390f35b34801561020557600080fd5b50610236610214366004611285565b600380546001600160a01b0319166001600160a01b0392909216919091179055565b005b34801561024457600080fd5b5061026e610253366004611285565b6001600160a01b031660009081526006602052604090205490565b6040519081526020016101f0565b34801561028857600080fd5b5061026e610297366004611285565b60046020526000908152604090205481565b3480156102b557600080fd5b506102366102c43660046112a9565b6105c8565b3480156102d557600080fd5b5061026e6102e4366004611285565b6001600160a01b031660009081526004602052604090205490565b34801561030b57600080fd5b5061023661031a366004611285565b600280546001600160a01b0319166001600160a01b0392909216919091179055565b34801561034857600080fd5b506102366103573660046112a9565b6107c7565b34801561036857600080fd5b5061026e610377366004611285565b6001600160a01b031660009081526005602052604090205490565b34801561039e57600080fd5b5061026e60085481565b3480156103b457600080fd5b506102366103c33660046112a9565b6107f8565b3480156103d457600080fd5b50610236610862565b6102366103eb366004611285565b6108cc565b3480156103fc57600080fd5b506001546101dc906001600160a01b031681565b34801561041c57600080fd5b5061026e61042b366004611285565b60056020526000908152604090205481565b34801561044957600080fd5b506002546101dc906001600160a01b031681565b34801561046957600080fd5b50610236610478366004611285565b61094b565b34801561048957600080fd5b506003546101dc906001600160a01b031681565b3480156104a957600080fd5b5061026e6104b8366004611285565b60066020526000908152604090205481565b3480156104d657600080fd5b506102366104e53660046112d5565b610acf565b3480156104f657600080fd5b50610236610505366004611285565b610ae9565b34801561051657600080fd5b506102366105253660046112d5565b610bcc565b34801561053657600080fd5b506102366105453660046112d5565b610e64565b34801561055657600080fd5b506102366105653660046112d5565b610edd565b34801561057657600080fd5b5061026e60075481565b610236610f41565b34801561059457600080fd5b506102366105a33660046112d5565b610fb5565b3480156105b457600080fd5b506102366105c3366004611285565b61117b565b6001600160a01b03821660009081526004602052604090205481111561062d5760405162461bcd60e51b815260206004820152601560248201527424b739bab33334b1b4b2b73a103130b630b731b29760591b60448201526064015b60405180910390fd5b600254604051636420ec2960e01b81526001600160a01b03848116600483015290911690636420ec2990602401602060405180830381865afa158015610677573d6000803e3d6000fd5b505050506040513d601f19601f8201168201806040525081019061069b9190611303565b6107035760405162461bcd60e51b815260206004820152603360248201527f4f75747374616e64696e67206c6f616e206d75737420626520726570616964206044820152723132b337b932903bb4ba34323930bbb4b7339760691b6064820152608401610624565b6001600160a01b0382166000908152600460205260408120805483929061072b908490611334565b9250508190555080600760008282546107449190611334565b90915550506040516001600160a01b0383169082156108fc029083906000818181858888f1935050505015801561077f573d6000803e3d6000fd5b50816001600160a01b03167f8455ae6be5d92f1df1c3c1484388e247a36c7e60d72055ae216dbc258f257d4b826040516107bb91815260200190565b60405180910390a25050565b6001600160a01b038216600090815260056020526040812080548392906107ef90849061134d565b90915550505050565b600354604051634122e5c360e11b81526001600160a01b0384811660048301526024820184905290911690638245cb8690604401600060405180830381600087803b15801561084657600080fd5b505af115801561085a573d6000803e3d6000fd5b505050505050565b600360009054906101000a90046001600160a01b03166001600160a01b0316638b3651ad6040518163ffffffff1660e01b8152600401600060405180830381600087803b1580156108b257600080fd5b505af11580156108c6573d6000803e3d6000fd5b50505050565b6001600160a01b038116600090815260046020526040812080543492906108f490849061134d565b92505081905550346007600082825461090d919061134d565b909155505060405134815233907f66ff7c8f71ccc7c36152a41920d0d3b46ef3034359f76aa1498ed4478c204b5c906020015b60405180910390a250565b600080546040516370a0823160e01b81523060048201526001600160a01b03909116906370a0823190602401602060405180830381865afa158015610994573d6000803e3d6000fd5b505050506040513d601f19601f820116820180604052508101906109b89190611360565b905060008111610a015760405162461bcd60e51b81526020600482015260146024820152732737902aa9a221903a37903a3930b739b332b91760611b6044820152606401610624565b60005460405163a9059cbb60e01b81526001600160a01b038481166004830152602482018490529091169063a9059cbb906044016020604051808303816000875af1158015610a54573d6000803e3d6000fd5b505050506040513d601f19601f82011682018060405250810190610a789190611303565b610a945760405162461bcd60e51b815260040161062490611379565b816001600160a01b03167fdf44238f7ebaaa785d34d583d1f33c08741dda2b7ebdfc83bfd1a3d17d46d537826040516107bb91815260200190565b8060086000828254610ae1919061134d565b909155505050565b600354604051633c6170fb60e01b81526001600160a01b0383811660048301526000921690633c6170fb90602401602060405180830381865afa158015610b34573d6000803e3d6000fd5b505050506040513d601f19601f82011682018060405250810190610b589190611360565b90508015610bc8576001600160a01b03821660009081526005602052604081208054839290610b8890849061134d565b90915550506040518181526001600160a01b038316907f16cbc685358ca7d4e6b273dcdf2cb5d18c80b950aa2319b519756cd016233a6c906020016107bb565b5050565b33600090815260056020526040902054811115610c235760405162461bcd60e51b815260206004820152601560248201527424b739bab33334b1b4b2b73a103130b630b731b29760591b6044820152606401610624565b600080546040516370a0823160e01b81523060048201526001600160a01b03909116906370a0823190602401602060405180830381865afa158015610c6c573d6000803e3d6000fd5b505050506040513d601f19601f82011682018060405250810190610c909190611360565b905081811015610cee5760405162461bcd60e51b8152602060048201526024808201527f496e73756666696369656e742062616c616e636520696e2046756e64696e675060448201526337b7b61760e11b6064820152608401610624565b3360009081526005602052604081208054849290610d0d908490611334565b925050819055508160086000828254610d269190611334565b909155505060005460405163095ea7b360e01b8152336004820152602481018490526001600160a01b039091169063095ea7b3906044016020604051808303816000875af1158015610d7c573d6000803e3d6000fd5b505050506040513d601f19601f82011682018060405250810190610da09190611303565b5060005460405163a9059cbb60e01b8152336004820152602481018490526001600160a01b039091169063a9059cbb906044016020604051808303816000875af1158015610df2573d6000803e3d6000fd5b505050506040513d601f19601f82011682018060405250810190610e169190611303565b610e325760405162461bcd60e51b815260040161062490611379565b60405182815233907f0d1589f631deb2542273b007140b132a18d48a4303d103fe64d353db07e01b57906020016107bb565b60005460025460405163095ea7b360e01b81526001600160a01b0391821660048201526024810184905291169063095ea7b3906044016020604051808303816000875af1158015610eb9573d6000803e3d6000fd5b505050506040513d601f19601f82011682018060405250810190610bc89190611303565b806008541015610f2f5760405162461bcd60e51b815260206004820152601a60248201527f496e73756666696369656e742055534443206465706f736974730000000000006044820152606401610624565b8060086000828254610ae19190611334565b3360009081526004602052604081208054349290610f6090849061134d565b925050819055503460076000828254610f79919061134d565b909155505060405134815233907f66ff7c8f71ccc7c36152a41920d0d3b46ef3034359f76aa1498ed4478c204b5c9060200160405180910390a2565b600054604051636eb1769f60e11b815233600482015230602482015282916001600160a01b03169063dd62ed3e90604401602060405180830381865afa158015611003573d6000803e3d6000fd5b505050506040513d601f19601f820116820180604052508101906110279190611360565b10156110755760405162461bcd60e51b815260206004820152601960248201527f416c6c6f77616e6365206e6f742073756666696369656e742e000000000000006044820152606401610624565b6000546040516323b872dd60e01b8152336004820152306024820152604481018390526001600160a01b03909116906323b872dd906064016020604051808303816000875af11580156110cc573d6000803e3d6000fd5b505050506040513d601f19601f820116820180604052508101906110f09190611303565b61110c5760405162461bcd60e51b815260040161062490611379565b336000908152600560205260408120805483929061112b90849061134d565b925050819055508060086000828254611144919061134d565b909155505060405181815233907f36e229bdaedfa85d503535ae31c3ac9e40d88f1ab4fa53870ef2da82df48e99090602001610940565b60015460405163156d12cb60e11b81526001600160a01b03838116600483015290911690632ada259690602401600060405180830381865afa1580156111c5573d6000803e3d6000fd5b505050506040513d6000823e601f3d908101601f191682016040526111ed919081019061141e565b604001516112365760405162461bcd60e51b815260206004820152601660248201527526b2b6b132b9103737ba103932b3b4b9ba32b932b21760511b6044820152606401610624565b6040516001600160a01b038216907f92fabfa210df88d92c2f5a07ddd43a985b208d8b19b7a78ba1284aa4b287d86290600090a250565b6001600160a01b038116811461128257600080fd5b50565b60006020828403121561129757600080fd5b81356112a28161126d565b9392505050565b600080604083850312156112bc57600080fd5b82356112c78161126d565b946020939093013593505050565b6000602082840312156112e757600080fd5b5035919050565b805180151581146112fe57600080fd5b919050565b60006020828403121561131557600080fd5b6112a2826112ee565b634e487b7160e01b600052601160045260246000fd5b818103818111156113475761134761131e565b92915050565b808201808211156113475761134761131e565b60006020828403121561137257600080fd5b5051919050565b60208082526010908201526f2a3930b739b332b9103330b4b632b21760811b604082015260600190565b634e487b7160e01b600052604160045260246000fd5b6040516060810167ffffffffffffffff811182821017156113dc576113dc6113a3565b60405290565b604051601f8201601f1916810167ffffffffffffffff8111828210171561140b5761140b6113a3565b604052919050565b80516112fe8161126d565b60006020828403121561143057600080fd5b815167ffffffffffffffff81111561144757600080fd5b82016060818503121561145957600080fd5b6114616113b9565b815167ffffffffffffffff81111561147857600080fd5b8201601f8101861361148957600080fd5b805167ffffffffffffffff8111156114a3576114a36113a3565b6114b6601f8201601f19166020016113e2565b8181528760208385010111156114cb57600080fd5b60005b828110156114ea576020818501810151838301820152016114ce565b5060006020838301015280845250505061150660208301611413565b6020820152611517604083016112ee565b604082015294935050505056fea2646970667358221220dba2739a52a25547588006e1540225607d4036f7fc24d1f7590cd7c34b19117f64736f6c634300081a0033",
  "linkReferences": {},
  "deployedLinkReferences": {}
}