{
  "_format": "hh-sol-artifact-1",
  "contractName": "LoanManager",
  "sourceName": "contracts/LoanManager.sol",
  "abi": [
    {
      "inputs": [
        {
          "internalType": "address",
          "name": "_fundingPoolAddress",
          "type": "address"
        },
        {
          "internalType": "address",
          "name": "_priceConsumerAddress",
          "type": "address"
        }
      ],
      "stateMutability": "nonpayable",
      "type": "constructor"
    },
    {
      "anonymous": false,
      "inputs": [
        {
          "indexed": true,
          "internalType": "address",
          "name": "borrower",
          "type": "address"
        },
        {
          "indexed": true,
          "internalType": "uint256",
          "name": "loanIndex",
          "type": "uint256"
        },
        {
          "indexed": false,
          "internalType": "uint256",
          "name": "collateralAmount",
          "type": "uint256"
        }
      ],
      "name": "CollateralReturned",
      "type": "event"
    },
    {
      "anonymous": false,
      "inputs": [
        {
          "indexed": true,
          "internalType": "address",
          "name": "borrower",
          "type": "address"
        },
        {
          "indexed": false,
          "internalType": "uint256",
          "name": "loanIndex",
          "type": "uint256"
        }
      ],
      "name": "LoanApproved",
      "type": "event"
    },
    {
      "anonymous": false,
      "inputs": [
        {
          "indexed": true,
          "internalType": "address",
          "name": "borrower",
          "type": "address"
        },
        {
          "indexed": false,
          "internalType": "uint256",
          "name": "loanIndex",
          "type": "uint256"
        },
        {
          "indexed": false,
          "internalType": "uint256",
          "name": "amount",
          "type": "uint256"
        }
      ],
      "name": "LoanDisbursed",
      "type": "event"
    },
    {
      "anonymous": false,
      "inputs": [
        {
          "indexed": true,
          "internalType": "address",
          "name": "borrower",
          "type": "address"
        },
        {
          "indexed": false,
          "internalType": "uint256",
          "name": "loanIndex",
          "type": "uint256"
        },
        {
          "indexed": false,
          "internalType": "uint256",
          "name": "amount",
          "type": "uint256"
        }
      ],
      "name": "LoanRepaid",
      "type": "event"
    },
    {
      "anonymous": false,
      "inputs": [
        {
          "indexed": true,
          "internalType": "address",
          "name": "borrower",
          "type": "address"
        },
        {
          "indexed": false,
          "internalType": "uint256",
          "name": "amount",
          "type": "uint256"
        },
        {
          "indexed": false,
          "internalType": "uint256",
          "name": "ethCollateral",
          "type": "uint256"
        },
        {
          "indexed": false,
          "internalType": "uint256",
          "name": "repaymentAmount",
          "type": "uint256"
        }
      ],
      "name": "LoanRequested",
      "type": "event"
    },
    {
      "inputs": [
        {
          "internalType": "address",
          "name": "_borrower",
          "type": "address"
        },
        {
          "internalType": "uint256",
          "name": "_loanIndex",
          "type": "uint256"
        }
      ],
      "name": "approveLoan",
      "outputs": [],
      "stateMutability": "nonpayable",
      "type": "function"
    },
    {
      "inputs": [
        {
          "internalType": "uint256",
          "name": "_usdcAmount",
          "type": "uint256"
        }
      ],
      "name": "calculateEthCollateral",
      "outputs": [
        {
          "internalType": "uint256",
          "name": "",
          "type": "uint256"
        }
      ],
      "stateMutability": "view",
      "type": "function"
    },
    {
      "inputs": [
        {
          "internalType": "address",
          "name": "_borrower",
          "type": "address"
        },
        {
          "internalType": "uint256",
          "name": "_loanIndex",
          "type": "uint256"
        }
      ],
      "name": "disburseLoan",
      "outputs": [],
      "stateMutability": "nonpayable",
      "type": "function"
    },
    {
      "inputs": [],
      "name": "ethToUsdcRate",
      "outputs": [
        {
          "internalType": "uint256",
          "name": "",
          "type": "uint256"
        }
      ],
      "stateMutability": "view",
      "type": "function"
    },
    {
      "inputs": [],
      "name": "fundingPool",
      "outputs": [
        {
          "internalType": "contract FundingPool",
          "name": "",
          "type": "address"
        }
      ],
      "stateMutability": "view",
      "type": "function"
    },
    {
      "inputs": [
        {
          "internalType": "address",
          "name": "_borrower",
          "type": "address"
        }
      ],
      "name": "getLoans",
      "outputs": [
        {
          "components": [
            {
              "internalType": "address",
              "name": "borrower",
              "type": "address"
            },
            {
              "internalType": "uint256",
              "name": "amount",
              "type": "uint256"
            },
            {
              "internalType": "uint256",
              "name": "ethCollateral",
              "type": "uint256"
            },
            {
              "internalType": "uint256",
              "name": "repaymentAmount",
              "type": "uint256"
            },
            {
              "internalType": "bool",
              "name": "isApproved",
              "type": "bool"
            },
            {
              "internalType": "bool",
              "name": "isRepaid",
              "type": "bool"
            },
            {
              "internalType": "uint256",
              "name": "dueDate",
              "type": "uint256"
            }
          ],
          "internalType": "struct LoanManager.Loan[]",
          "name": "",
          "type": "tuple[]"
        }
      ],
      "stateMutability": "view",
      "type": "function"
    },
    {
      "inputs": [
        {
          "internalType": "address",
          "name": "_borrower",
          "type": "address"
        }
      ],
      "name": "hasRepaidLoans",
      "outputs": [
        {
          "internalType": "bool",
          "name": "",
          "type": "bool"
        }
      ],
      "stateMutability": "view",
      "type": "function"
    },
    {
      "inputs": [
        {
          "internalType": "address",
          "name": "",
          "type": "address"
        },
        {
          "internalType": "uint256",
          "name": "",
          "type": "uint256"
        }
      ],
      "name": "loans",
      "outputs": [
        {
          "internalType": "address",
          "name": "borrower",
          "type": "address"
        },
        {
          "internalType": "uint256",
          "name": "amount",
          "type": "uint256"
        },
        {
          "internalType": "uint256",
          "name": "ethCollateral",
          "type": "uint256"
        },
        {
          "internalType": "uint256",
          "name": "repaymentAmount",
          "type": "uint256"
        },
        {
          "internalType": "bool",
          "name": "isApproved",
          "type": "bool"
        },
        {
          "internalType": "bool",
          "name": "isRepaid",
          "type": "bool"
        },
        {
          "internalType": "uint256",
          "name": "dueDate",
          "type": "uint256"
        }
      ],
      "stateMutability": "view",
      "type": "function"
    },
    {
      "inputs": [
        {
          "internalType": "address",
          "name": "_borrower",
          "type": "address"
        },
        {
          "internalType": "uint256",
          "name": "_loanIndex",
          "type": "uint256"
        },
        {
          "internalType": "uint256",
          "name": "_amount",
          "type": "uint256"
        }
      ],
      "name": "repayLoan",
      "outputs": [],
      "stateMutability": "nonpayable",
      "type": "function"
    },
    {
      "inputs": [
        {
          "internalType": "uint256",
          "name": "_amount",
          "type": "uint256"
        },
        {
          "internalType": "uint256",
          "name": "_ethCollateral",
          "type": "uint256"
        }
      ],
      "name": "requestLoan",
      "outputs": [],
      "stateMutability": "payable",
      "type": "function"
    },
    {
      "inputs": [
        {
          "internalType": "address",
          "name": "_borrower",
          "type": "address"
        },
        {
          "internalType": "uint256",
          "name": "_loanIndex",
          "type": "uint256"
        }
      ],
      "name": "returnCollateral",
      "outputs": [],
      "stateMutability": "nonpayable",
      "type": "function"
    },
    {
      "inputs": [],
      "name": "setEthToUsdcRate",
      "outputs": [],
      "stateMutability": "nonpayable",
      "type": "function"
    },
    {
      "inputs": [
        {
          "internalType": "address",
          "name": "_borrower",
          "type": "address"
        },
        {
          "internalType": "uint256",
          "name": "_loanIndex",
          "type": "uint256"
        }
      ],
      "name": "setLoanAsRepaid",
      "outputs": [],
      "stateMutability": "nonpayable",
      "type": "function"
    },
    {
      "inputs": [],
      "name": "staticInterestRate",
      "outputs": [
        {
          "internalType": "uint256",
          "name": "",
          "type": "uint256"
        }
      ],
      "stateMutability": "view",
      "type": "function"
    }
  ],
  "bytecode": "0x60806040526002600355348015601457600080fd5b50604051611725380380611725833981016040819052603191607c565b600180546001600160a01b039384166001600160a01b0319918216179091556000805492909316911617905560aa565b80516001600160a01b0381168114607757600080fd5b919050565b60008060408385031215608e57600080fd5b6095836061565b915060a1602084016061565b90509250929050565b61166c806100b96000396000f3fe6080604052600436106100dd5760003560e01c80639f63f5c31161007f578063b3ffa98211610059578063b3ffa9821461025e578063d988ef201461027e578063f59a0617146102ab578063f6a1fe94146102cb57600080fd5b80639f63f5c31461020b578063aa452fa61461022b578063b22d62f31461023e57600080fd5b806374e863ad116100bb57806374e863ad1461015157806380a5d3d81461017357806393d67c891461019357806398c61c37146101a857600080fd5b8063031246fa146100e2578063625ed5031461010b5780636420ec2914610121575b600080fd5b3480156100ee57600080fd5b506100f860035481565b6040519081526020015b60405180910390f35b34801561011757600080fd5b506100f860045481565b34801561012d57600080fd5b5061014161013c36600461124f565b610303565b6040519015158152602001610102565b34801561015d57600080fd5b5061017161016c366004611273565b61040c565b005b34801561017f57600080fd5b5061017161018e36600461129f565b610578565b34801561019f57600080fd5b506101716107bb565b3480156101b457600080fd5b506101c86101c3366004611273565b610886565b604080516001600160a01b039098168852602088019690965294860193909352606085019190915215156080840152151560a083015260c082015260e001610102565b34801561021757600080fd5b50610171610226366004611273565b6108f1565b6101716102393660046112d4565b6109dc565b34801561024a57600080fd5b50610171610259366004611273565b610de7565b34801561026a57600080fd5b506100f86102793660046112f6565b611013565b34801561028a57600080fd5b5061029e61029936600461124f565b611114565b604051610102919061130f565b3480156102b757600080fd5b506101716102c6366004611273565b6111dd565b3480156102d757600080fd5b506001546102eb906001600160a01b031681565b6040516001600160a01b039091168152602001610102565b6001600160a01b038116600090815260026020908152604080832080548251818502810185019093528083528493849084015b828210156103bc5760008481526020908190206040805160e0810182526006860290920180546001600160a01b031683526001808201548486015260028201549284019290925260038101546060840152600481015460ff8082161515608086015261010090910416151560a08401526005015460c08301529083529092019101610336565b50505050905060005b8151811015610402578181815181106103e0576103e06113a2565b602002602001015160a001516103fa575060009392505050565b6001016103c5565b5060019392505050565b6001600160a01b0382166000908152600260205260408120805483908110610436576104366113a2565b60009182526020909120600690910201600481015490915060ff166104765760405162461bcd60e51b815260040161046d906113b8565b60405180910390fd5b6004810154610100900460ff166104c55760405162461bcd60e51b81526020600482015260136024820152722637b0b71034b9903737ba103932b830b4b21760691b604482015260640161046d565b60028101805460009091556001546040516378a1085360e11b8152600481018390526001600160a01b039091169063f14210a690602401600060405180830381600087803b15801561051657600080fd5b505af115801561052a573d6000803e3d6000fd5b5050505082846001600160a01b03167f6317b02bf4f9d77ff9f12b927d1b0bb5831458350ded642ec3d9fc47c5451f9d8360405161056a91815260200190565b60405180910390a350505050565b6001600160a01b03831660009081526002602052604081208054849081106105a2576105a26113a2565b60009182526020909120600690910201600481015490915060ff166105d95760405162461bcd60e51b815260040161046d906113b8565b6004810154610100900460ff161561062d5760405162461bcd60e51b81526020600482015260176024820152762637b0b71034b99030b63932b0b23c903932b830b4b21760491b604482015260640161046d565b600160009054906101000a90046001600160a01b03166001600160a01b03166311eac8556040518163ffffffff1660e01b8152600401602060405180830381865afa158015610680573d6000803e3d6000fd5b505050506040513d601f19601f820116820180604052508101906106a491906113e7565b6001546040516323b872dd60e01b81523360048201526001600160a01b039182166024820152604481018590529116906323b872dd906064016020604051808303816000875af11580156106fc573d6000803e3d6000fd5b505050506040513d601f19601f820116820180604052508101906107209190611419565b61075f5760405162461bcd60e51b815260206004820152601060248201526f2a3930b739b332b9103330b4b632b21760811b604482015260640161046d565b60048101805461ff00191661010017905560408051848152602081018490526001600160a01b038616917fc7ce0a35f17b490de2a317e7fecb2cae86b1abffb03800b2f49282352138269891015b60405180910390a250505050565b60008060009054906101000a90046001600160a01b03166001600160a01b0316638e15f4736040518163ffffffff1660e01b8152600401602060405180830381865afa15801561080f573d6000803e3d6000fd5b505050506040513d601f19601f820116820180604052508101906108339190611434565b9050600081136108815760405162461bcd60e51b8152602060048201526019602482015278496e76616c69642070726963652066726f6d206f7261636c6560381b604482015260640161046d565b600455565b600260205281600052604060002081815481106108a257600080fd5b60009182526020909120600690910201805460018201546002830154600384015460048501546005909501546001600160a01b03909416965091945092909160ff808316926101009004169087565b6001600160a01b038216600090815260026020526040812080548390811061091b5761091b6113a2565b60009182526020909120600690910201600481015490915060ff16156109835760405162461bcd60e51b815260206004820152601960248201527f4c6f616e20697320616c726561647920617070726f7665642e00000000000000604482015260640161046d565b60048101805460ff191660011790556040516001600160a01b038416907f93e6d20b2134c2834b2d150cb5d87de9e77bde683f944766c3c45b793ba8ddad906109cf9085815260200190565b60405180910390a2505050565b600160009054906101000a90046001600160a01b03166001600160a01b031663a74d47726040518163ffffffff1660e01b8152600401602060405180830381865afa158015610a2f573d6000803e3d6000fd5b505050506040513d601f19601f82011682018060405250810190610a5391906113e7565b60405163156d12cb60e11b81523360048201526001600160a01b039190911690632ada259690602401600060405180830381865afa158015610a99573d6000803e3d6000fd5b505050506040513d6000823e601f3d908101601f19168201604052610ac191908101906114c8565b60400151610b245760405162461bcd60e51b815260206004820152602a60248201527f4f6e6c792072656769737465726564206d656d626572732063616e207265717560448201526932b9ba103637b0b7399760b11b606482015260840161046d565b60008211610b805760405162461bcd60e51b815260206004820152602360248201527f4c6f616e20616d6f756e74206d7573742062652067726561746572207468616e60448201526210181760e91b606482015260840161046d565b6000610b8f4262278d006115e4565b90506000606460035485610ba391906115fd565b610bad9190611614565b610bb790856115e4565b905082341015610c095760405162461bcd60e51b815260206004820181905260248201527f496e73756666696369656e7420636f6c6c61746572616c2062616c616e63652e604482015260640161046d565b600160009054906101000a90046001600160a01b03166001600160a01b0316636f758140346040518263ffffffff1660e01b81526004016000604051808303818588803b158015610c5957600080fd5b505af1158015610c6d573d6000803e3d6000fd5b505050505060026000336001600160a01b03166001600160a01b031681526020019081526020016000206040518060e00160405280336001600160a01b0316815260200186815260200134815260200183815260200160001515815260200160001515815260200184815250908060018154018082558091505060019003906000526020600020906006020160009091909190915060008201518160000160006101000a8154816001600160a01b0302191690836001600160a01b0316021790555060208201518160010155604082015181600201556060820151816003015560808201518160040160006101000a81548160ff02191690831515021790555060a08201518160040160016101000a81548160ff02191690831515021790555060c082015181600501555050336001600160a01b03167f470e775e4fa2bd975947314dc912d0dd85338d809a6b967e36382e32a3b6f2bb8585846040516107ad939291909283526020830191909152604082015260600190565b6001600160a01b0382166000908152600260205260408120805483908110610e1157610e116113a2565b60009182526020909120600690910201600481015490915060ff16610e485760405162461bcd60e51b815260040161046d906113b8565b6004810154610100900460ff1615610e9c5760405162461bcd60e51b81526020600482015260176024820152762637b0b71034b99030b63932b0b23c903932b830b4b21760491b604482015260640161046d565b600160009054906101000a90046001600160a01b03166001600160a01b03166311eac8556040518163ffffffff1660e01b8152600401602060405180830381865afa158015610eef573d6000803e3d6000fd5b505050506040513d601f19601f82011682018060405250810190610f1391906113e7565b600182015460405163a9059cbb60e01b81526001600160a01b038681166004830152602482019290925291169063a9059cbb906044016020604051808303816000875af1158015610f68573d6000803e3d6000fd5b505050506040513d601f19601f82011682018060405250810190610f8c9190611419565b610fcb5760405162461bcd60e51b815260206004820152601060248201526f2a3930b739b332b9103330b4b632b21760811b604482015260640161046d565b826001600160a01b03167f5660f932172e1664b98577a703dd9484d374b28e3bf8c87b345bee97af6124128383600101546040516109cf929190918252602082015260400190565b6000805460408051638e15f47360e01b8152905183926001600160a01b031691638e15f4739160048083019260209291908290030181865afa15801561105d573d6000803e3d6000fd5b505050506040513d601f19601f820116820180604052508101906110819190611434565b9050600081136110cf5760405162461bcd60e51b8152602060048201526019602482015278496e76616c69642070726963652066726f6d206f7261636c6560381b604482015260640161046d565b80600060646110df6096876115fd565b6110e99190611614565b905060008261110083670de0b6b3a76400006115fd565b61110a9190611614565b9695505050505050565b6001600160a01b0381166000908152600260209081526040808320805482518185028101850190935280835260609492939192909184015b828210156111d25760008481526020908190206040805160e0810182526006860290920180546001600160a01b031683526001808201548486015260028201549284019290925260038101546060840152600481015460ff8082161515608086015261010090910416151560a08401526005015460c0830152908352909201910161114c565b505050509050919050565b6001600160a01b03821660009081526002602052604090208054600191908390811061120b5761120b6113a2565b906000526020600020906006020160040160016101000a81548160ff0219169083151502179055505050565b6001600160a01b038116811461124c57600080fd5b50565b60006020828403121561126157600080fd5b813561126c81611237565b9392505050565b6000806040838503121561128657600080fd5b823561129181611237565b946020939093013593505050565b6000806000606084860312156112b457600080fd5b83356112bf81611237565b95602085013595506040909401359392505050565b600080604083850312156112e757600080fd5b50508035926020909101359150565b60006020828403121561130857600080fd5b5035919050565b602080825282518282018190526000918401906040840190835b8181101561139757835160018060a01b03815116845260208101516020850152604081015160408501526060810151606085015260808101511515608085015260a0810151151560a085015260c081015160c08501525060e083019250602084019350600181019050611329565b509095945050505050565b634e487b7160e01b600052603260045260246000fd5b6020808252601590820152742637b0b71034b9903737ba1030b8383937bb32b21760591b604082015260600190565b6000602082840312156113f957600080fd5b815161126c81611237565b8051801515811461141457600080fd5b919050565b60006020828403121561142b57600080fd5b61126c82611404565b60006020828403121561144657600080fd5b5051919050565b634e487b7160e01b600052604160045260246000fd5b6040516060810167ffffffffffffffff811182821017156114865761148661144d565b60405290565b604051601f8201601f1916810167ffffffffffffffff811182821017156114b5576114b561144d565b604052919050565b805161141481611237565b6000602082840312156114da57600080fd5b815167ffffffffffffffff8111156114f157600080fd5b82016060818503121561150357600080fd5b61150b611463565b815167ffffffffffffffff81111561152257600080fd5b8201601f8101861361153357600080fd5b805167ffffffffffffffff81111561154d5761154d61144d565b611560601f8201601f191660200161148c565b81815287602083850101111561157557600080fd5b60005b8281101561159457602081850181015183830182015201611578565b506000602083830101528084525050506115b0602083016114bd565b60208201526115c160408301611404565b6040820152949350505050565b634e487b7160e01b600052601160045260246000fd5b808201808211156115f7576115f76115ce565b92915050565b80820281158282048414176115f7576115f76115ce565b60008261163157634e487b7160e01b600052601260045260246000fd5b50049056fea26469706673582212200370adefcb8d7f342196bd1ac910e776d875c786d95bb715755560975bfcfbbb64736f6c634300081a0033",
  "linkReferences": {},
  "deployedLinkReferences": {}
}