{
  "_format": "hh-sol-artifact-1",
  "contractName": "LoanManager",
  "sourceName": "contracts/LoanManager.sol",
  "abi": [
    {
      "inputs": [
        {
          "internalType": "address",
          "name": "_fundingPoolAddress",
          "type": "address"
        },
        {
          "internalType": "address",
          "name": "_priceConsumerAddress",
          "type": "address"
        }
      ],
      "stateMutability": "nonpayable",
      "type": "constructor"
    },
    {
      "anonymous": false,
      "inputs": [
        {
          "indexed": true,
          "internalType": "address",
          "name": "borrower",
          "type": "address"
        },
        {
          "indexed": true,
          "internalType": "uint256",
          "name": "loanIndex",
          "type": "uint256"
        },
        {
          "indexed": false,
          "internalType": "uint256",
          "name": "collateralAmount",
          "type": "uint256"
        }
      ],
      "name": "CollateralReturned",
      "type": "event"
    },
    {
      "anonymous": false,
      "inputs": [
        {
          "indexed": true,
          "internalType": "address",
          "name": "borrower",
          "type": "address"
        },
        {
          "indexed": false,
          "internalType": "uint256",
          "name": "loanIndex",
          "type": "uint256"
        }
      ],
      "name": "LoanApproved",
      "type": "event"
    },
    {
      "anonymous": false,
      "inputs": [
        {
          "indexed": true,
          "internalType": "address",
          "name": "borrower",
          "type": "address"
        },
        {
          "indexed": false,
          "internalType": "uint256",
          "name": "loanIndex",
          "type": "uint256"
        },
        {
          "indexed": false,
          "internalType": "uint256",
          "name": "amount",
          "type": "uint256"
        }
      ],
      "name": "LoanDisbursed",
      "type": "event"
    },
    {
      "anonymous": false,
      "inputs": [
        {
          "indexed": true,
          "internalType": "address",
          "name": "borrower",
          "type": "address"
        },
        {
          "indexed": false,
          "internalType": "uint256",
          "name": "loanIndex",
          "type": "uint256"
        },
        {
          "indexed": false,
          "internalType": "uint256",
          "name": "amount",
          "type": "uint256"
        }
      ],
      "name": "LoanRepaid",
      "type": "event"
    },
    {
      "anonymous": false,
      "inputs": [
        {
          "indexed": true,
          "internalType": "address",
          "name": "borrower",
          "type": "address"
        },
        {
          "indexed": false,
          "internalType": "uint256",
          "name": "amount",
          "type": "uint256"
        },
        {
          "indexed": false,
          "internalType": "uint256",
          "name": "ethCollateral",
          "type": "uint256"
        },
        {
          "indexed": false,
          "internalType": "uint256",
          "name": "repaymentAmount",
          "type": "uint256"
        }
      ],
      "name": "LoanRequested",
      "type": "event"
    },
    {
      "inputs": [
        {
          "internalType": "address",
          "name": "_borrower",
          "type": "address"
        },
        {
          "internalType": "uint256",
          "name": "_loanIndex",
          "type": "uint256"
        }
      ],
      "name": "approveLoan",
      "outputs": [],
      "stateMutability": "nonpayable",
      "type": "function"
    },
    {
      "inputs": [
        {
          "internalType": "address",
          "name": "_borrower",
          "type": "address"
        },
        {
          "internalType": "uint256",
          "name": "_loanIndex",
          "type": "uint256"
        }
      ],
      "name": "disburseLoan",
      "outputs": [],
      "stateMutability": "nonpayable",
      "type": "function"
    },
    {
      "inputs": [],
      "name": "ethToUsdcRate",
      "outputs": [
        {
          "internalType": "uint256",
          "name": "",
          "type": "uint256"
        }
      ],
      "stateMutability": "view",
      "type": "function"
    },
    {
      "inputs": [],
      "name": "fundingPool",
      "outputs": [
        {
          "internalType": "contract FundingPool",
          "name": "",
          "type": "address"
        }
      ],
      "stateMutability": "view",
      "type": "function"
    },
    {
      "inputs": [
        {
          "internalType": "address",
          "name": "_borrower",
          "type": "address"
        }
      ],
      "name": "getLoans",
      "outputs": [
        {
          "components": [
            {
              "internalType": "address",
              "name": "borrower",
              "type": "address"
            },
            {
              "internalType": "uint256",
              "name": "amount",
              "type": "uint256"
            },
            {
              "internalType": "uint256",
              "name": "ethCollateral",
              "type": "uint256"
            },
            {
              "internalType": "uint256",
              "name": "repaymentAmount",
              "type": "uint256"
            },
            {
              "internalType": "bool",
              "name": "isApproved",
              "type": "bool"
            },
            {
              "internalType": "bool",
              "name": "isRepaid",
              "type": "bool"
            },
            {
              "internalType": "uint256",
              "name": "dueDate",
              "type": "uint256"
            }
          ],
          "internalType": "struct LoanManager.Loan[]",
          "name": "",
          "type": "tuple[]"
        }
      ],
      "stateMutability": "view",
      "type": "function"
    },
    {
      "inputs": [
        {
          "internalType": "address",
          "name": "_borrower",
          "type": "address"
        }
      ],
      "name": "hasRepaidLoans",
      "outputs": [
        {
          "internalType": "bool",
          "name": "",
          "type": "bool"
        }
      ],
      "stateMutability": "view",
      "type": "function"
    },
    {
      "inputs": [
        {
          "internalType": "address",
          "name": "",
          "type": "address"
        },
        {
          "internalType": "uint256",
          "name": "",
          "type": "uint256"
        }
      ],
      "name": "loans",
      "outputs": [
        {
          "internalType": "address",
          "name": "borrower",
          "type": "address"
        },
        {
          "internalType": "uint256",
          "name": "amount",
          "type": "uint256"
        },
        {
          "internalType": "uint256",
          "name": "ethCollateral",
          "type": "uint256"
        },
        {
          "internalType": "uint256",
          "name": "repaymentAmount",
          "type": "uint256"
        },
        {
          "internalType": "bool",
          "name": "isApproved",
          "type": "bool"
        },
        {
          "internalType": "bool",
          "name": "isRepaid",
          "type": "bool"
        },
        {
          "internalType": "uint256",
          "name": "dueDate",
          "type": "uint256"
        }
      ],
      "stateMutability": "view",
      "type": "function"
    },
    {
      "inputs": [
        {
          "internalType": "address",
          "name": "_borrower",
          "type": "address"
        },
        {
          "internalType": "uint256",
          "name": "_loanIndex",
          "type": "uint256"
        },
        {
          "internalType": "uint256",
          "name": "_amount",
          "type": "uint256"
        }
      ],
      "name": "repayLoan",
      "outputs": [],
      "stateMutability": "nonpayable",
      "type": "function"
    },
    {
      "inputs": [
        {
          "internalType": "uint256",
          "name": "_amount",
          "type": "uint256"
        },
        {
          "internalType": "uint256",
          "name": "_dueDate",
          "type": "uint256"
        }
      ],
      "name": "requestLoan",
      "outputs": [],
      "stateMutability": "payable",
      "type": "function"
    },
    {
      "inputs": [
        {
          "internalType": "address",
          "name": "_borrower",
          "type": "address"
        },
        {
          "internalType": "uint256",
          "name": "_loanIndex",
          "type": "uint256"
        }
      ],
      "name": "returnCollateral",
      "outputs": [],
      "stateMutability": "nonpayable",
      "type": "function"
    },
    {
      "inputs": [],
      "name": "setEthToUsdcRate",
      "outputs": [],
      "stateMutability": "nonpayable",
      "type": "function"
    },
    {
      "inputs": [
        {
          "internalType": "address",
          "name": "_borrower",
          "type": "address"
        },
        {
          "internalType": "uint256",
          "name": "_loanIndex",
          "type": "uint256"
        }
      ],
      "name": "setLoanAsRepaid",
      "outputs": [],
      "stateMutability": "nonpayable",
      "type": "function"
    },
    {
      "inputs": [],
      "name": "staticInterestRate",
      "outputs": [
        {
          "internalType": "uint256",
          "name": "",
          "type": "uint256"
        }
      ],
      "stateMutability": "view",
      "type": "function"
    }
  ],
  "bytecode": "0x60806040526005600355348015601457600080fd5b50604051611424380380611424833981016040819052603191607c565b600180546001600160a01b039384166001600160a01b0319918216179091556000805492909316911617905560aa565b80516001600160a01b0381168114607757600080fd5b919050565b60008060408385031215608e57600080fd5b6095836061565b915060a1602084016061565b90509250929050565b61136b806100b96000396000f3fe6080604052600436106100c25760003560e01c806398c61c371161007f578063b22d62f311610059578063b22d62f314610223578063d988ef2014610243578063f59a061714610270578063f6a1fe941461029057600080fd5b806398c61c371461018d5780639f63f5c3146101f0578063aa452fa61461021057600080fd5b8063031246fa146100c7578063625ed503146100f05780636420ec291461010657806374e863ad1461013657806380a5d3d81461015857806393d67c8914610178575b600080fd5b3480156100d357600080fd5b506100dd60035481565b6040519081526020015b60405180910390f35b3480156100fc57600080fd5b506100dd60045481565b34801561011257600080fd5b506101266101213660046110f6565b6102c8565b60405190151581526020016100e7565b34801561014257600080fd5b5061015661015136600461111a565b6103d1565b005b34801561016457600080fd5b50610156610173366004611146565b61053d565b34801561018457600080fd5b50610156610780565b34801561019957600080fd5b506101ad6101a836600461111a565b61084b565b604080516001600160a01b039098168852602088019690965294860193909352606085019190915215156080840152151560a083015260c082015260e0016100e7565b3480156101fc57600080fd5b5061015661020b36600461111a565b6108b6565b61015661021e36600461117b565b6109a1565b34801561022f57600080fd5b5061015661023e36600461111a565b610c79565b34801561024f57600080fd5b5061026361025e3660046110f6565b610ea5565b6040516100e7919061119d565b34801561027c57600080fd5b5061015661028b36600461111a565b610f6e565b34801561029c57600080fd5b506001546102b0906001600160a01b031681565b6040516001600160a01b0390911681526020016100e7565b6001600160a01b038116600090815260026020908152604080832080548251818502810185019093528083528493849084015b828210156103815760008481526020908190206040805160e0810182526006860290920180546001600160a01b031683526001808201548486015260028201549284019290925260038101546060840152600481015460ff8082161515608086015261010090910416151560a08401526005015460c083015290835290920191016102fb565b50505050905060005b81518110156103c7578181815181106103a5576103a5611230565b602002602001015160a001516103bf575060009392505050565b60010161038a565b5060019392505050565b6001600160a01b03821660009081526002602052604081208054839081106103fb576103fb611230565b60009182526020909120600690910201600481015490915060ff1661043b5760405162461bcd60e51b815260040161043290611246565b60405180910390fd5b6004810154610100900460ff1661048a5760405162461bcd60e51b81526020600482015260136024820152722637b0b71034b9903737ba103932b830b4b21760691b6044820152606401610432565b60028101805460009091556001546040516378a1085360e11b8152600481018390526001600160a01b039091169063f14210a690602401600060405180830381600087803b1580156104db57600080fd5b505af11580156104ef573d6000803e3d6000fd5b5050505082846001600160a01b03167f6317b02bf4f9d77ff9f12b927d1b0bb5831458350ded642ec3d9fc47c5451f9d8360405161052f91815260200190565b60405180910390a350505050565b6001600160a01b038316600090815260026020526040812080548490811061056757610567611230565b60009182526020909120600690910201600481015490915060ff1661059e5760405162461bcd60e51b815260040161043290611246565b6004810154610100900460ff16156105f25760405162461bcd60e51b81526020600482015260176024820152762637b0b71034b99030b63932b0b23c903932b830b4b21760491b6044820152606401610432565b600160009054906101000a90046001600160a01b03166001600160a01b03166311eac8556040518163ffffffff1660e01b8152600401602060405180830381865afa158015610645573d6000803e3d6000fd5b505050506040513d601f19601f820116820180604052508101906106699190611275565b6001546040516323b872dd60e01b81523360048201526001600160a01b039182166024820152604481018590529116906323b872dd906064016020604051808303816000875af11580156106c1573d6000803e3d6000fd5b505050506040513d601f19601f820116820180604052508101906106e59190611292565b6107245760405162461bcd60e51b815260206004820152601060248201526f2a3930b739b332b9103330b4b632b21760811b6044820152606401610432565b60048101805461ff00191661010017905560408051848152602081018490526001600160a01b038616917fc7ce0a35f17b490de2a317e7fecb2cae86b1abffb03800b2f49282352138269891015b60405180910390a250505050565b60008060009054906101000a90046001600160a01b03166001600160a01b0316638e15f4736040518163ffffffff1660e01b8152600401602060405180830381865afa1580156107d4573d6000803e3d6000fd5b505050506040513d601f19601f820116820180604052508101906107f891906112b4565b9050600081136108465760405162461bcd60e51b8152602060048201526019602482015278496e76616c69642070726963652066726f6d206f7261636c6560381b6044820152606401610432565b600455565b6002602052816000526040600020818154811061086757600080fd5b60009182526020909120600690910201805460018201546002830154600384015460048501546005909501546001600160a01b03909416965091945092909160ff808316926101009004169087565b6001600160a01b03821660009081526002602052604081208054839081106108e0576108e0611230565b60009182526020909120600690910201600481015490915060ff16156109485760405162461bcd60e51b815260206004820152601960248201527f4c6f616e20697320616c726561647920617070726f7665642e000000000000006044820152606401610432565b60048101805460ff191660011790556040516001600160a01b038416907f93e6d20b2134c2834b2d150cb5d87de9e77bde683f944766c3c45b793ba8ddad906109949085815260200190565b60405180910390a2505050565b6109a9610780565b60006064600354846109bb91906112e3565b6109c59190611300565b6109cf9084611322565b905060006109dc84610fc8565b600154604051631348c07360e21b815233600482015291925082916001600160a01b0390911690634d2301cc90602401602060405180830381865afa158015610a29573d6000803e3d6000fd5b505050506040513d601f19601f82011682018060405250810190610a4d91906112b4565b1015610a9b5760405162461bcd60e51b815260206004820181905260248201527f496e73756666696369656e7420636f6c6c61746572616c2062616c616e63652e6044820152606401610432565b600160009054906101000a90046001600160a01b03166001600160a01b0316636f758140826040518263ffffffff1660e01b81526004016000604051808303818588803b158015610aeb57600080fd5b505af1158015610aff573d6000803e3d6000fd5b505050505060026000336001600160a01b03166001600160a01b031681526020019081526020016000206040518060e00160405280336001600160a01b0316815260200186815260200183815260200184815260200160001515815260200160001515815260200185815250908060018154018082558091505060019003906000526020600020906006020160009091909190915060008201518160000160006101000a8154816001600160a01b0302191690836001600160a01b0316021790555060208201518160010155604082015181600201556060820151816003015560808201518160040160006101000a81548160ff02191690831515021790555060a08201518160040160016101000a81548160ff02191690831515021790555060c082015181600501555050336001600160a01b03167f470e775e4fa2bd975947314dc912d0dd85338d809a6b967e36382e32a3b6f2bb858385604051610772939291909283526020830191909152604082015260600190565b6001600160a01b0382166000908152600260205260408120805483908110610ca357610ca3611230565b60009182526020909120600690910201600481015490915060ff16610cda5760405162461bcd60e51b815260040161043290611246565b6004810154610100900460ff1615610d2e5760405162461bcd60e51b81526020600482015260176024820152762637b0b71034b99030b63932b0b23c903932b830b4b21760491b6044820152606401610432565b600160009054906101000a90046001600160a01b03166001600160a01b03166311eac8556040518163ffffffff1660e01b8152600401602060405180830381865afa158015610d81573d6000803e3d6000fd5b505050506040513d601f19601f82011682018060405250810190610da59190611275565b600182015460405163a9059cbb60e01b81526001600160a01b038681166004830152602482019290925291169063a9059cbb906044016020604051808303816000875af1158015610dfa573d6000803e3d6000fd5b505050506040513d601f19601f82011682018060405250810190610e1e9190611292565b610e5d5760405162461bcd60e51b815260206004820152601060248201526f2a3930b739b332b9103330b4b632b21760811b6044820152606401610432565b826001600160a01b03167f5660f932172e1664b98577a703dd9484d374b28e3bf8c87b345bee97af612412838360010154604051610994929190918252602082015260400190565b6001600160a01b0381166000908152600260209081526040808320805482518185028101850190935280835260609492939192909184015b82821015610f635760008481526020908190206040805160e0810182526006860290920180546001600160a01b031683526001808201548486015260028201549284019290925260038101546060840152600481015460ff8082161515608086015261010090910416151560a08401526005015460c08301529083529092019101610edd565b505050509050919050565b6001600160a01b038216600090815260026020526040902080546001919083908110610f9c57610f9c611230565b906000526020600020906006020160040160016101000a81548160ff0219169083151502179055505050565b6000805460408051638e15f47360e01b8152905183926001600160a01b031691638e15f4739160048083019260209291908290030181865afa158015611012573d6000803e3d6000fd5b505050506040513d601f19601f8201168201806040525081019061103691906112b4565b9050600081136110845760405162461bcd60e51b8152602060048201526019602482015278496e76616c69642070726963652066726f6d206f7261636c6560381b6044820152606401610432565b80600081611096866305f5e1006112e3565b6110a890670de0b6b3a76400006112e3565b6110b29190611300565b905060646110c16096836112e3565b6110cb9190611300565b6110d59082611322565b95945050505050565b6001600160a01b03811681146110f357600080fd5b50565b60006020828403121561110857600080fd5b8135611113816110de565b9392505050565b6000806040838503121561112d57600080fd5b8235611138816110de565b946020939093013593505050565b60008060006060848603121561115b57600080fd5b8335611166816110de565b95602085013595506040909401359392505050565b6000806040838503121561118e57600080fd5b50508035926020909101359150565b602080825282518282018190526000918401906040840190835b8181101561122557835160018060a01b03815116845260208101516020850152604081015160408501526060810151606085015260808101511515608085015260a0810151151560a085015260c081015160c08501525060e0830192506020840193506001810190506111b7565b509095945050505050565b634e487b7160e01b600052603260045260246000fd5b6020808252601590820152742637b0b71034b9903737ba1030b8383937bb32b21760591b604082015260600190565b60006020828403121561128757600080fd5b8151611113816110de565b6000602082840312156112a457600080fd5b8151801515811461111357600080fd5b6000602082840312156112c657600080fd5b5051919050565b634e487b7160e01b600052601160045260246000fd5b80820281158282048414176112fa576112fa6112cd565b92915050565b60008261131d57634e487b7160e01b600052601260045260246000fd5b500490565b808201808211156112fa576112fa6112cd56fea26469706673582212208f0b19b80cf4aa4dc113e8f925aec8e79caa4241ead5822f83806701cd81bc4964736f6c634300081a0033",
  "linkReferences": {},
  "deployedLinkReferences": {}
}