{
  "_format": "hh-sol-artifact-1",
  "contractName": "LoanManager",
  "sourceName": "contracts/LoanManager.sol",
  "abi": [
    {
      "inputs": [
        {
          "internalType": "address",
          "name": "_fundingPoolAddress",
          "type": "address"
        },
        {
          "internalType": "address",
          "name": "_priceConsumerAddress",
          "type": "address"
        }
      ],
      "stateMutability": "nonpayable",
      "type": "constructor"
    },
    {
      "anonymous": false,
      "inputs": [
        {
          "indexed": true,
          "internalType": "address",
          "name": "borrower",
          "type": "address"
        },
        {
          "indexed": true,
          "internalType": "uint256",
          "name": "loanIndex",
          "type": "uint256"
        },
        {
          "indexed": false,
          "internalType": "uint256",
          "name": "collateralAmount",
          "type": "uint256"
        }
      ],
      "name": "CollateralReturned",
      "type": "event"
    },
    {
      "anonymous": false,
      "inputs": [
        {
          "indexed": true,
          "internalType": "address",
          "name": "borrower",
          "type": "address"
        },
        {
          "indexed": false,
          "internalType": "uint256",
          "name": "loanIndex",
          "type": "uint256"
        }
      ],
      "name": "LoanApproved",
      "type": "event"
    },
    {
      "anonymous": false,
      "inputs": [
        {
          "indexed": true,
          "internalType": "address",
          "name": "borrower",
          "type": "address"
        },
        {
          "indexed": false,
          "internalType": "uint256",
          "name": "loanIndex",
          "type": "uint256"
        },
        {
          "indexed": false,
          "internalType": "uint256",
          "name": "amount",
          "type": "uint256"
        }
      ],
      "name": "LoanDisbursed",
      "type": "event"
    },
    {
      "anonymous": false,
      "inputs": [
        {
          "indexed": true,
          "internalType": "address",
          "name": "borrower",
          "type": "address"
        },
        {
          "indexed": false,
          "internalType": "uint256",
          "name": "loanIndex",
          "type": "uint256"
        },
        {
          "indexed": false,
          "internalType": "uint256",
          "name": "amount",
          "type": "uint256"
        }
      ],
      "name": "LoanRepaid",
      "type": "event"
    },
    {
      "anonymous": false,
      "inputs": [
        {
          "indexed": true,
          "internalType": "address",
          "name": "borrower",
          "type": "address"
        },
        {
          "indexed": false,
          "internalType": "uint256",
          "name": "amount",
          "type": "uint256"
        },
        {
          "indexed": false,
          "internalType": "uint256",
          "name": "ethCollateral",
          "type": "uint256"
        },
        {
          "indexed": false,
          "internalType": "uint256",
          "name": "repaymentAmount",
          "type": "uint256"
        }
      ],
      "name": "LoanRequested",
      "type": "event"
    },
    {
      "inputs": [
        {
          "internalType": "address",
          "name": "_borrower",
          "type": "address"
        },
        {
          "internalType": "uint256",
          "name": "_loanIndex",
          "type": "uint256"
        }
      ],
      "name": "approveLoan",
      "outputs": [],
      "stateMutability": "nonpayable",
      "type": "function"
    },
    {
      "inputs": [
        {
          "internalType": "uint256",
          "name": "_usdcAmount",
          "type": "uint256"
        }
      ],
      "name": "calculateEthCollateral",
      "outputs": [
        {
          "internalType": "uint256",
          "name": "",
          "type": "uint256"
        }
      ],
      "stateMutability": "view",
      "type": "function"
    },
    {
      "inputs": [
        {
          "internalType": "address",
          "name": "_borrower",
          "type": "address"
        },
        {
          "internalType": "uint256",
          "name": "_loanIndex",
          "type": "uint256"
        }
      ],
      "name": "disburseLoan",
      "outputs": [],
      "stateMutability": "nonpayable",
      "type": "function"
    },
    {
      "inputs": [],
      "name": "ethToUsdcRate",
      "outputs": [
        {
          "internalType": "uint256",
          "name": "",
          "type": "uint256"
        }
      ],
      "stateMutability": "view",
      "type": "function"
    },
    {
      "inputs": [],
      "name": "fundingPool",
      "outputs": [
        {
          "internalType": "contract FundingPool",
          "name": "",
          "type": "address"
        }
      ],
      "stateMutability": "view",
      "type": "function"
    },
    {
      "inputs": [
        {
          "internalType": "address",
          "name": "_borrower",
          "type": "address"
        },
        {
          "internalType": "uint256",
          "name": "_loanIndex",
          "type": "uint256"
        }
      ],
      "name": "getLoan",
      "outputs": [
        {
          "components": [
            {
              "internalType": "uint256",
              "name": "loanIndex",
              "type": "uint256"
            },
            {
              "internalType": "address",
              "name": "borrower",
              "type": "address"
            },
            {
              "internalType": "uint256",
              "name": "amount",
              "type": "uint256"
            },
            {
              "internalType": "uint256",
              "name": "ethCollateral",
              "type": "uint256"
            },
            {
              "internalType": "uint256",
              "name": "repaymentAmount",
              "type": "uint256"
            },
            {
              "internalType": "bool",
              "name": "isApproved",
              "type": "bool"
            },
            {
              "internalType": "bool",
              "name": "isRepaid",
              "type": "bool"
            },
            {
              "internalType": "bool",
              "name": "isDisbursed",
              "type": "bool"
            },
            {
              "internalType": "uint256",
              "name": "dueDate",
              "type": "uint256"
            }
          ],
          "internalType": "struct LoanManager.Loan",
          "name": "",
          "type": "tuple"
        }
      ],
      "stateMutability": "view",
      "type": "function"
    },
    {
      "inputs": [
        {
          "internalType": "address",
          "name": "_borrower",
          "type": "address"
        }
      ],
      "name": "getLoans",
      "outputs": [
        {
          "components": [
            {
              "internalType": "uint256",
              "name": "loanIndex",
              "type": "uint256"
            },
            {
              "internalType": "address",
              "name": "borrower",
              "type": "address"
            },
            {
              "internalType": "uint256",
              "name": "amount",
              "type": "uint256"
            },
            {
              "internalType": "uint256",
              "name": "ethCollateral",
              "type": "uint256"
            },
            {
              "internalType": "uint256",
              "name": "repaymentAmount",
              "type": "uint256"
            },
            {
              "internalType": "bool",
              "name": "isApproved",
              "type": "bool"
            },
            {
              "internalType": "bool",
              "name": "isRepaid",
              "type": "bool"
            },
            {
              "internalType": "bool",
              "name": "isDisbursed",
              "type": "bool"
            },
            {
              "internalType": "uint256",
              "name": "dueDate",
              "type": "uint256"
            }
          ],
          "internalType": "struct LoanManager.Loan[]",
          "name": "",
          "type": "tuple[]"
        }
      ],
      "stateMutability": "view",
      "type": "function"
    },
    {
      "inputs": [
        {
          "internalType": "address",
          "name": "_borrower",
          "type": "address"
        }
      ],
      "name": "hasRepaidLoans",
      "outputs": [
        {
          "internalType": "bool",
          "name": "",
          "type": "bool"
        }
      ],
      "stateMutability": "view",
      "type": "function"
    },
    {
      "inputs": [
        {
          "internalType": "address",
          "name": "",
          "type": "address"
        },
        {
          "internalType": "uint256",
          "name": "",
          "type": "uint256"
        }
      ],
      "name": "loans",
      "outputs": [
        {
          "internalType": "uint256",
          "name": "loanIndex",
          "type": "uint256"
        },
        {
          "internalType": "address",
          "name": "borrower",
          "type": "address"
        },
        {
          "internalType": "uint256",
          "name": "amount",
          "type": "uint256"
        },
        {
          "internalType": "uint256",
          "name": "ethCollateral",
          "type": "uint256"
        },
        {
          "internalType": "uint256",
          "name": "repaymentAmount",
          "type": "uint256"
        },
        {
          "internalType": "bool",
          "name": "isApproved",
          "type": "bool"
        },
        {
          "internalType": "bool",
          "name": "isRepaid",
          "type": "bool"
        },
        {
          "internalType": "bool",
          "name": "isDisbursed",
          "type": "bool"
        },
        {
          "internalType": "uint256",
          "name": "dueDate",
          "type": "uint256"
        }
      ],
      "stateMutability": "view",
      "type": "function"
    },
    {
      "inputs": [
        {
          "internalType": "address",
          "name": "_borrower",
          "type": "address"
        },
        {
          "internalType": "uint256",
          "name": "_loanIndex",
          "type": "uint256"
        },
        {
          "internalType": "uint256",
          "name": "_amount",
          "type": "uint256"
        }
      ],
      "name": "repayLoan",
      "outputs": [],
      "stateMutability": "nonpayable",
      "type": "function"
    },
    {
      "inputs": [
        {
          "internalType": "uint256",
          "name": "_amount",
          "type": "uint256"
        },
        {
          "internalType": "uint256",
          "name": "_ethCollateral",
          "type": "uint256"
        }
      ],
      "name": "requestLoan",
      "outputs": [],
      "stateMutability": "payable",
      "type": "function"
    },
    {
      "inputs": [
        {
          "internalType": "address",
          "name": "_borrower",
          "type": "address"
        },
        {
          "internalType": "uint256",
          "name": "_loanIndex",
          "type": "uint256"
        }
      ],
      "name": "returnCollateral",
      "outputs": [],
      "stateMutability": "nonpayable",
      "type": "function"
    },
    {
      "inputs": [],
      "name": "setEthToUsdcRate",
      "outputs": [],
      "stateMutability": "nonpayable",
      "type": "function"
    },
    {
      "inputs": [
        {
          "internalType": "address",
          "name": "_borrower",
          "type": "address"
        },
        {
          "internalType": "uint256",
          "name": "_loanIndex",
          "type": "uint256"
        }
      ],
      "name": "setLoanAsRepaid",
      "outputs": [],
      "stateMutability": "nonpayable",
      "type": "function"
    },
    {
      "inputs": [],
      "name": "staticInterestRate",
      "outputs": [
        {
          "internalType": "uint256",
          "name": "",
          "type": "uint256"
        }
      ],
      "stateMutability": "view",
      "type": "function"
    }
  ],
  "bytecode": "0x60806040526002600355348015601457600080fd5b50604051611db8380380611db8833981016040819052603191607c565b600180546001600160a01b039384166001600160a01b0319918216179091556000805492909316911617905560aa565b80516001600160a01b0381168114607757600080fd5b919050565b60008060408385031215608e57600080fd5b6095836061565b915060a1602084016061565b90509250929050565b611cff806100b96000396000f3fe6080604052600436106100e85760003560e01c80639f63f5c31161008a578063b3ffa98211610059578063b3ffa982146102a5578063d988ef20146102c5578063f59a0617146102f2578063f6a1fe941461031257600080fd5b80639f63f5c314610225578063a1c5158614610245578063aa452fa614610272578063b22d62f31461028557600080fd5b806374e863ad116100c657806374e863ad1461015c57806380a5d3d81461017e57806393d67c891461019e57806398c61c37146101b357600080fd5b8063031246fa146100ed578063625ed503146101165780636420ec291461012c575b600080fd5b3480156100f957600080fd5b5061010360035481565b6040519081526020015b60405180910390f35b34801561012257600080fd5b5061010360045481565b34801561013857600080fd5b5061014c6101473660046118a9565b61034a565b604051901515815260200161010d565b34801561016857600080fd5b5061017c6101773660046118cd565b61046f565b005b34801561018a57600080fd5b5061017c6101993660046118f9565b6105db565b3480156101aa57600080fd5b5061017c6109a9565b3480156101bf57600080fd5b506101d36101ce3660046118cd565b610a74565b60408051998a526001600160a01b0390981660208a01529688019590955260608701939093526080860191909152151560a0850152151560c0840152151560e08301526101008201526101200161010d565b34801561023157600080fd5b5061017c6102403660046118cd565b610af1565b34801561025157600080fd5b506102656102603660046118cd565b610bdc565b60405161010d91906119a2565b61017c6102803660046119b1565b610cfd565b34801561029157600080fd5b5061017c6102a03660046118cd565b61117f565b3480156102b157600080fd5b506101036102c03660046119d3565b611651565b3480156102d157600080fd5b506102e56102e03660046118a9565b611752565b60405161010d91906119ec565b3480156102fe57600080fd5b5061017c61030d3660046118cd565b611837565b34801561031e57600080fd5b50600154610332906001600160a01b031681565b6040516001600160a01b03909116815260200161010d565b6001600160a01b038116600090815260026020908152604080832080548251818502810185019093528083528493849084015b8282101561041f576000848152602090819020604080516101208101825260078602909201805483526001808201546001600160a01b0316848601526002820154928401929092526003810154606084015260048101546080840152600581015460ff808216151560a08601526101008083048216151560c08701526201000090920416151560e085015260069091015490830152908352909201910161037d565b50505050905060005b81518110156104655781818151811061044357610443611a3b565b602002602001015160c0015161045d575060009392505050565b600101610428565b5060019392505050565b6001600160a01b038216600090815260026020526040812080548390811061049957610499611a3b565b60009182526020909120600790910201600581015490915060ff166104d95760405162461bcd60e51b81526004016104d090611a51565b60405180910390fd5b6005810154610100900460ff166105285760405162461bcd60e51b81526020600482015260136024820152722637b0b71034b9903737ba103932b830b4b21760691b60448201526064016104d0565b60038101805460009091556001546040516378a1085360e11b8152600481018390526001600160a01b039091169063f14210a690602401600060405180830381600087803b15801561057957600080fd5b505af115801561058d573d6000803e3d6000fd5b5050505082846001600160a01b03167f6317b02bf4f9d77ff9f12b927d1b0bb5831458350ded642ec3d9fc47c5451f9d836040516105cd91815260200190565b60405180910390a350505050565b6001600160a01b038316600090815260026020526040812080548490811061060557610605611a3b565b60009182526020909120600790910201600581015490915060ff1661063c5760405162461bcd60e51b81526004016104d090611a51565b600581015462010000900460ff1661068f5760405162461bcd60e51b81526020600482015260166024820152752637b0b71034b9903737ba103234b9b13ab939b2b21760511b60448201526064016104d0565b6005810154610100900460ff16156106e35760405162461bcd60e51b81526020600482015260176024820152762637b0b71034b99030b63932b0b23c903932b830b4b21760491b60448201526064016104d0565b600154604080516311eac85560e01b8152905184926001600160a01b0316916311eac8559160048083019260209291908290030181865afa15801561072c573d6000803e3d6000fd5b505050506040513d601f19601f820116820180604052508101906107509190611a80565b604051636eb1769f60e11b81526001600160a01b038781166004830152306024830152919091169063dd62ed3e90604401602060405180830381865afa15801561079e573d6000803e3d6000fd5b505050506040513d601f19601f820116820180604052508101906107c29190611a9d565b101561081b5760405162461bcd60e51b815260206004820152602260248201527f416c6c6f77616e6365206e6f7420736574206f7220696e73756666696369656e6044820152613a1760f11b60648201526084016104d0565b600160009054906101000a90046001600160a01b03166001600160a01b03166311eac8556040518163ffffffff1660e01b8152600401602060405180830381865afa15801561086e573d6000803e3d6000fd5b505050506040513d601f19601f820116820180604052508101906108929190611a80565b6001546040516323b872dd60e01b81523360048201526001600160a01b039182166024820152604481018590529116906323b872dd906064016020604051808303816000875af11580156108ea573d6000803e3d6000fd5b505050506040513d601f19601f8201168201806040525081019061090e9190611acb565b61094d5760405162461bcd60e51b815260206004820152601060248201526f2a3930b739b332b9103330b4b632b21760811b60448201526064016104d0565b60058101805461ff00191661010017905560408051848152602081018490526001600160a01b038616917fc7ce0a35f17b490de2a317e7fecb2cae86b1abffb03800b2f49282352138269891015b60405180910390a250505050565b60008060009054906101000a90046001600160a01b03166001600160a01b0316638e15f4736040518163ffffffff1660e01b8152600401602060405180830381865afa1580156109fd573d6000803e3d6000fd5b505050506040513d601f19601f82011682018060405250810190610a219190611a9d565b905060008113610a6f5760405162461bcd60e51b8152602060048201526019602482015278496e76616c69642070726963652066726f6d206f7261636c6560381b60448201526064016104d0565b600455565b60026020528160005260406000208181548110610a9057600080fd5b600091825260209091206007909102018054600182015460028301546003840154600485015460058601546006909601549497506001600160a01b0390931695509093909260ff808316926101008104821692620100009091049091169089565b6001600160a01b0382166000908152600260205260408120805483908110610b1b57610b1b611a3b565b60009182526020909120600790910201600581015490915060ff1615610b835760405162461bcd60e51b815260206004820152601960248201527f4c6f616e20697320616c726561647920617070726f7665642e0000000000000060448201526064016104d0565b60058101805460ff191660011790556040516001600160a01b038416907f93e6d20b2134c2834b2d150cb5d87de9e77bde683f944766c3c45b793ba8ddad90610bcf9085815260200190565b60405180910390a2505050565b610c3a6040518061012001604052806000815260200160006001600160a01b03168152602001600081526020016000815260200160008152602001600015158152602001600015158152602001600015158152602001600081525090565b6001600160a01b0383166000908152600260205260409020805483908110610c6457610c64611a3b565b6000918252602091829020604080516101208101825260079093029091018054835260018101546001600160a01b0316938301939093526002830154908201526003820154606082015260048201546080820152600582015460ff808216151560a08401526101008083048216151560c08501526201000090920416151560e08301526006909201549181019190915290505b92915050565b600160009054906101000a90046001600160a01b03166001600160a01b031663a74d47726040518163ffffffff1660e01b8152600401602060405180830381865afa158015610d50573d6000803e3d6000fd5b505050506040513d601f19601f82011682018060405250810190610d749190611a80565b60405163156d12cb60e11b81523360048201526001600160a01b039190911690632ada259690602401600060405180830381865afa158015610dba573d6000803e3d6000fd5b505050506040513d6000823e601f3d908101601f19168201604052610de29190810190611b61565b60400151610e455760405162461bcd60e51b815260206004820152602a60248201527f4f6e6c792072656769737465726564206d656d626572732063616e207265717560448201526932b9ba103637b0b7399760b11b60648201526084016104d0565b60008211610ea15760405162461bcd60e51b815260206004820152602360248201527f4c6f616e20616d6f756e74206d7573742062652067726561746572207468616e60448201526210181760e91b60648201526084016104d0565b6000610eb04262278d00611c7d565b90506000606460035485610ec49190611c90565b610ece9190611ca7565b610ed89085611c7d565b905082341015610f2a5760405162461bcd60e51b815260206004820181905260248201527f496e73756666696369656e7420636f6c6c61746572616c2062616c616e63652e60448201526064016104d0565b600160009054906101000a90046001600160a01b03166001600160a01b0316636f758140346040518263ffffffff1660e01b81526004016000604051808303818588803b158015610f7a57600080fd5b505af1158015610f8e573d6000803e3d6000fd5b5050505050600060026000336001600160a01b03166001600160a01b0316815260200190815260200160002080549050905060026000336001600160a01b03166001600160a01b03168152602001908152602001600020604051806101200160405280838152602001336001600160a01b031681526020018781526020013481526020018481526020016000151581526020016000151581526020016000151581526020018581525090806001815401808255809150506001900390600052602060002090600702016000909190919091506000820151816000015560208201518160010160006101000a8154816001600160a01b0302191690836001600160a01b0316021790555060408201518160020155606082015181600301556080820151816004015560a08201518160050160006101000a81548160ff02191690831515021790555060c08201518160050160016101000a81548160ff02191690831515021790555060e08201518160050160026101000a81548160ff02191690831515021790555061010082015181600601555050336001600160a01b03167f470e775e4fa2bd975947314dc912d0dd85338d809a6b967e36382e32a3b6f2bb868685604051611170939291909283526020830191909152604082015260600190565b60405180910390a25050505050565b6001600160a01b03821660009081526002602052604081208054839081106111a9576111a9611a3b565b60009182526020909120600790910201600581015490915060ff166111e05760405162461bcd60e51b81526004016104d090611a51565b6005810154610100900460ff16156112345760405162461bcd60e51b81526020600482015260176024820152762637b0b71034b99030b63932b0b23c903932b830b4b21760491b60448201526064016104d0565b600581015462010000900460ff161561128f5760405162461bcd60e51b815260206004820152601a60248201527f4c6f616e20697320616c7265616479206469736275727365642e00000000000060448201526064016104d0565b600154604080516311eac85560e01b815290516000926001600160a01b0316916311eac8559160048083019260209291908290030181865afa1580156112d9573d6000803e3d6000fd5b505050506040513d601f19601f820116820180604052508101906112fd9190611a80565b6001546040516370a0823160e01b81526001600160a01b0391821660048201529116906370a0823190602401602060405180830381865afa158015611346573d6000803e3d6000fd5b505050506040513d601f19601f8201168201806040525081019061136a9190611a9d565b905081600201548110156113cc5760405162461bcd60e51b8152602060048201526024808201527f496e73756666696369656e742062616c616e636520696e2046756e64696e675060448201526337b7b61760e11b60648201526084016104d0565b600160009054906101000a90046001600160a01b03166001600160a01b03166311eac8556040518163ffffffff1660e01b8152600401602060405180830381865afa15801561141f573d6000803e3d6000fd5b505050506040513d601f19601f820116820180604052508101906114439190611a80565b600283015460405163095ea7b360e01b815230600482015260248101919091526001600160a01b03919091169063095ea7b3906044016020604051808303816000875af1158015611498573d6000803e3d6000fd5b505050506040513d601f19601f820116820180604052508101906114bc9190611acb565b50600160009054906101000a90046001600160a01b03166001600160a01b03166311eac8556040518163ffffffff1660e01b8152600401602060405180830381865afa158015611510573d6000803e3d6000fd5b505050506040513d601f19601f820116820180604052508101906115349190611a80565b60015460028401546040516323b872dd60e01b81526001600160a01b039283166004820152878316602482015260448101919091529116906323b872dd906064016020604051808303816000875af1158015611594573d6000803e3d6000fd5b505050506040513d601f19601f820116820180604052508101906115b89190611acb565b6115f75760405162461bcd60e51b815260206004820152601060248201526f2a3930b739b332b9103330b4b632b21760811b60448201526064016104d0565b60058201805462ff000019166201000017905560028201546040516001600160a01b038616917f5660f932172e1664b98577a703dd9484d374b28e3bf8c87b345bee97af6124129161099b91878252602082015260400190565b6000805460408051638e15f47360e01b8152905183926001600160a01b031691638e15f4739160048083019260209291908290030181865afa15801561169b573d6000803e3d6000fd5b505050506040513d601f19601f820116820180604052508101906116bf9190611a9d565b90506000811361170d5760405162461bcd60e51b8152602060048201526019602482015278496e76616c69642070726963652066726f6d206f7261636c6560381b60448201526064016104d0565b806000606461171d609687611c90565b6117279190611ca7565b905060008261173e83670de0b6b3a7640000611c90565b6117489190611ca7565b9695505050505050565b6001600160a01b0381166000908152600260209081526040808320805482518185028101850190935280835260609492939192909184015b8282101561182c576000848152602090819020604080516101208101825260078602909201805483526001808201546001600160a01b0316848601526002820154928401929092526003810154606084015260048101546080840152600581015460ff808216151560a08601526101008083048216151560c08701526201000090920416151560e085015260069091015490830152908352909201910161178a565b505050509050919050565b6001600160a01b03821660009081526002602052604090208054600191908390811061186557611865611a3b565b906000526020600020906007020160050160016101000a81548160ff0219169083151502179055505050565b6001600160a01b03811681146118a657600080fd5b50565b6000602082840312156118bb57600080fd5b81356118c681611891565b9392505050565b600080604083850312156118e057600080fd5b82356118eb81611891565b946020939093013593505050565b60008060006060848603121561190e57600080fd5b833561191981611891565b95602085013595506040909401359392505050565b8051825260018060a01b03602082015116602083015260408101516040830152606081015160608301526080810151608083015260a0810151151560a083015260c081015161198160c084018215159052565b5060e081015161199560e084018215159052565b5061010090810151910152565b6101208101610cf7828461192e565b600080604083850312156119c457600080fd5b50508035926020909101359150565b6000602082840312156119e557600080fd5b5035919050565b602080825282518282018190526000918401906040840190835b81811015611a3057611a1983855161192e565b602093909301926101209290920191600101611a06565b509095945050505050565b634e487b7160e01b600052603260045260246000fd5b6020808252601590820152742637b0b71034b9903737ba1030b8383937bb32b21760591b604082015260600190565b600060208284031215611a9257600080fd5b81516118c681611891565b600060208284031215611aaf57600080fd5b5051919050565b80518015158114611ac657600080fd5b919050565b600060208284031215611add57600080fd5b6118c682611ab6565b634e487b7160e01b600052604160045260246000fd5b6040516060810167ffffffffffffffff81118282101715611b1f57611b1f611ae6565b60405290565b604051601f8201601f1916810167ffffffffffffffff81118282101715611b4e57611b4e611ae6565b604052919050565b8051611ac681611891565b600060208284031215611b7357600080fd5b815167ffffffffffffffff811115611b8a57600080fd5b820160608185031215611b9c57600080fd5b611ba4611afc565b815167ffffffffffffffff811115611bbb57600080fd5b8201601f81018613611bcc57600080fd5b805167ffffffffffffffff811115611be657611be6611ae6565b611bf9601f8201601f1916602001611b25565b818152876020838501011115611c0e57600080fd5b60005b82811015611c2d57602081850181015183830182015201611c11565b50600060208383010152808452505050611c4960208301611b56565b6020820152611c5a60408301611ab6565b6040820152949350505050565b634e487b7160e01b600052601160045260246000fd5b80820180821115610cf757610cf7611c67565b8082028115828204841417610cf757610cf7611c67565b600082611cc457634e487b7160e01b600052601260045260246000fd5b50049056fea26469706673582212209a3ca0e8945f264cf5a3c392bc6cd59964f348afb0651c9fd4ec4d1ec438dd2c64736f6c634300081a0033",
  "linkReferences": {},
  "deployedLinkReferences": {}
}