{
  "_format": "hh-sol-artifact-1",
  "contractName": "MemberRegistry",
  "sourceName": "contracts/MemberRegistry.sol",
  "abi": [
    {
      "anonymous": false,
      "inputs": [
        {
          "indexed": true,
          "internalType": "address",
          "name": "memberAddress",
          "type": "address"
        },
        {
          "indexed": false,
          "internalType": "string",
          "name": "name",
          "type": "string"
        }
      ],
      "name": "MemberRegistered",
      "type": "event"
    },
    {
      "inputs": [],
      "name": "getAllMembers",
      "outputs": [
        {
          "internalType": "address[]",
          "name": "",
          "type": "address[]"
        }
      ],
      "stateMutability": "view",
      "type": "function"
    },
    {
      "inputs": [
        {
          "internalType": "address",
          "name": "_memberAddress",
          "type": "address"
        }
      ],
      "name": "getMember",
      "outputs": [
        {
          "components": [
            {
              "internalType": "string",
              "name": "name",
              "type": "string"
            },
            {
              "internalType": "address",
              "name": "memberAddress",
              "type": "address"
            },
            {
              "internalType": "bool",
              "name": "isRegistered",
              "type": "bool"
            }
          ],
          "internalType": "struct MemberRegistry.Member",
          "name": "",
          "type": "tuple"
        }
      ],
      "stateMutability": "view",
      "type": "function"
    },
    {
      "inputs": [
        {
          "internalType": "uint256",
          "name": "",
          "type": "uint256"
        }
      ],
      "name": "memberList",
      "outputs": [
        {
          "internalType": "address",
          "name": "",
          "type": "address"
        }
      ],
      "stateMutability": "view",
      "type": "function"
    },
    {
      "inputs": [
        {
          "internalType": "address",
          "name": "",
          "type": "address"
        }
      ],
      "name": "members",
      "outputs": [
        {
          "internalType": "string",
          "name": "name",
          "type": "string"
        },
        {
          "internalType": "address",
          "name": "memberAddress",
          "type": "address"
        },
        {
          "internalType": "bool",
          "name": "isRegistered",
          "type": "bool"
        }
      ],
      "stateMutability": "view",
      "type": "function"
    },
    {
      "inputs": [
        {
          "internalType": "string",
          "name": "_name",
          "type": "string"
        }
      ],
      "name": "registerMember",
      "outputs": [],
      "stateMutability": "nonpayable",
      "type": "function"
    }
  ],
  "bytecode": "0x6080604052348015600f57600080fd5b5061089d8061001f6000396000f3fe608060405234801561001057600080fd5b50600436106100575760003560e01c806308ae4b0c1461005c5780632ada2596146100875780637c0f6b35146100a7578063a5871d91146100bc578063b307fc6d146100d1575b600080fd5b61006f61006a3660046104e6565b6100fc565b60405161007e9392919061055c565b60405180910390f35b61009a6100953660046104e6565b6101b6565b60405161007e919061058f565b6100af6102b4565b60405161007e91906105d8565b6100cf6100ca36600461063a565b610316565b005b6100e46100df3660046106f3565b6104bc565b6040516001600160a01b03909116815260200161007e565b6000602081905290815260409020805481906101179061070c565b80601f01602080910402602001604051908101604052809291908181526020018280546101439061070c565b80156101905780601f1061016557610100808354040283529160200191610190565b820191906000526020600020905b81548152906001019060200180831161017357829003601f168201915b505050600190930154919250506001600160a01b0381169060ff600160a01b9091041683565b60408051606080820183528152600060208201819052918101919091526001600160a01b038216600090815260208190526040908190208151606081019092528054829082906102059061070c565b80601f01602080910402602001604051908101604052809291908181526020018280546102319061070c565b801561027e5780601f106102535761010080835404028352916020019161027e565b820191906000526020600020905b81548152906001019060200180831161026157829003601f168201915b5050509183525050600191909101546001600160a01b0381166020830152600160a01b900460ff16151560409091015292915050565b6060600180548060200260200160405190810160405280929190818152602001828054801561030c57602002820191906000526020600020905b81546001600160a01b031681526001909101906020018083116102ee575b5050505050905090565b33600090815260208190526040902060010154600160a01b900460ff16156103855760405162461bcd60e51b815260206004820152601d60248201527f4d656d62657220697320616c726561647920726567697374657265642e00000060448201526064015b60405180910390fd5b60008151116103ce5760405162461bcd60e51b81526020600482015260156024820152742730b6b29031b0b73737ba1031329032b6b83a3c9760591b604482015260640161037c565b60408051606081018252828152336020808301829052600183850152600091825281905291909120815181906104049082610795565b506020820151600191820180546040948501511515600160a01b026001600160a81b03199091166001600160a01b0390931692909217919091179055805480820182556000919091527fb10e2d527612073b26eecdfd717e6a320cf44b4afac2b0732d9fcbe2b7fa0cf60180546001600160a01b0319163390811790915590517f3b09349069a59bcde8c2609afc86c80b77c81085ac8cd8662981621f7ea3574b906104b1908490610854565b60405180910390a250565b600181815481106104cc57600080fd5b6000918252602090912001546001600160a01b0316905081565b6000602082840312156104f857600080fd5b81356001600160a01b038116811461050f57600080fd5b9392505050565b6000815180845260005b8181101561053c57602081850181015186830182015201610520565b506000602082860101526020601f19601f83011685010191505092915050565b60608152600061056f6060830186610516565b6001600160a01b0394909416602083015250901515604090910152919050565b6020815260008251606060208401526105ab6080840182610516565b60208501516001600160a01b03166040858101919091529094015115156060909301929092525090919050565b602080825282518282018190526000918401906040840190835b818110156106195783516001600160a01b03168352602093840193909201916001016105f2565b509095945050505050565b634e487b7160e01b600052604160045260246000fd5b60006020828403121561064c57600080fd5b813567ffffffffffffffff81111561066357600080fd5b8201601f8101841361067457600080fd5b803567ffffffffffffffff81111561068e5761068e610624565b604051601f8201601f19908116603f0116810167ffffffffffffffff811182821017156106bd576106bd610624565b6040528181528282016020018610156106d557600080fd5b81602084016020830137600091810160200191909152949350505050565b60006020828403121561070557600080fd5b5035919050565b600181811c9082168061072057607f821691505b60208210810361074057634e487b7160e01b600052602260045260246000fd5b50919050565b601f82111561079057806000526020600020601f840160051c8101602085101561076d5750805b601f840160051c820191505b8181101561078d5760008155600101610779565b50505b505050565b815167ffffffffffffffff8111156107af576107af610624565b6107c3816107bd845461070c565b84610746565b6020601f8211600181146107f757600083156107df5750848201515b600019600385901b1c1916600184901b17845561078d565b600084815260208120601f198516915b828110156108275787850151825560209485019460019092019101610807565b50848210156108455786840151600019600387901b60f8161c191681555b50505050600190811b01905550565b60208152600061050f602083018461051656fea26469706673582212203d2878d0ad19880e7f863b87b2bdb8d9ab2c3e6e45c1fa8f927b87bdb89d825164736f6c634300081a0033",
  "linkReferences": {},
  "deployedLinkReferences": {}
}